:100000000C949A010C94CB010C94CB010C94CB0171
:100010000C94CB010C94CB010C94CB010C94CB0130
:100020000C94CB010C94CB010C94CB010C94CB0120
:100030000C94CB010C94CB010C94CB010C94CB0110
:100040000C94CB010C94CB010C94CB010C94CB0100
:100050000C94CB010C94CB010C94CB010C941A039F
:100060000C94CB010C94C7070C949D070C94CB0106
:100070000C94CB010C94CB010C94CB010C94CB01D0
:100080000C94CB010C94CB010C94CB010C94CB01C0
:100090000C94CA040C9415050C94CB010C94CB0160
:1000A0000C94CB010C94CB010C94CB010C94CB01A0
:1000B0000C94CB010C94CB010C94CB010C94CB0190
:1000C0000C94CB010C94CB010C94CB010C94CB0180
:1000D0000C94CB010C94CB010C94CB010C94CB0170
:1000E0000C94CB010A15F414C81420152015DE1445
:1000F000DE14F4140A152015CA06CD06BC06C00687
:10010000C4060407D106D506DB06DF06E306E906CA
:10011000ED06F1060407F706FB06FF06FC11FC11CD
:100120000D120D120D121E121E122F120C94E30648
:100130000C9420020C94DE140C94DB060C943F0506
:100140000C9486050C940D120C94ED060C94FB0691
:100150000C94CE010C94CD060C94E9060C94FD0190
:100160000C94F4140C94D5060C94C8140C94FF064B
:100170000C940A150C941E120C940C020C942E0272
:100180000C942F120C9404070C94D1060C94C00606
:100190000C94BC060C94F1060C9412180C94DF0617
:1001A0000C94FC110C94CA060C942F180C94C406E1
:1001B0000C9420150C94F7062323202041726475BB
:1001C000696E6F436354616C6B4C6962202D2045EE
:1001D00078616D706C65203E3E2053746172742EA0
:1001E0002E2E002D2D2D2D2D2D2D2D2D2D2D2D2D6A
:1001F0002D2D2D2D2D2D2D2D2D2D2D2D2D2D2D2D2F
:100200002D2D2D2D2D2D2D2D2D2D2D2D2D000000A5
:100210000A0B02090C0D0E08070304010000000080
:1002200000000000000000000000000000000000CE
:10023000000000000000000000001211100000008B
:1002400000000000000000000000000000000000AE
:10025000000000003000003A003A000000220025B3
:100260000028002B002E00310034000201000005A0
:100270000108010B0100002100240027002A002DA5
:10028000003000330001010000040107010A0105EC
:10029000050505070508080808020202020A0A08FF
:1002A0000804040404010101010101010103030325
:1002B0000303030303040707070C0C0C0C0C0C0CC2
:1002C0000C0202020206060606060606060B0B0BC9
:1002D0000B0B0B0B0B010210202008081020401004
:1002E00020408002010201080402010102040810FA
:1002F0002040808040201008040201800402018018
:100300004020100804020108040201010204081040
:100310002040800102040810204080434354414C97
:100320004B2D44455649434500434354414C4B00F3
:100330002F18121811241FBECFEFD1E2DEBFCDBFA0
:1003400000E00CBF17E0A0E0B2E0E8EFF7E300E068
:100350000BBF02C007900D92A03CB107D9F729E06E
:10036000A0ECB7E001C01D92AA3BB207E1F711E093
:10037000C9E9D1E000E006C021970109802FFE0104
:100380000E944819C839D10780E00807A9F70E94E0
:1003900078120C94EA1B0C9400000895CF92DF921F
:1003A000EF92FF920F931F93CF93DF936C017A012B
:1003B0008B01C0E0D0E0CE15DF0589F0D8016D914A
:1003C0008D01D601ED91FC910190F081E02DC601E7
:1003D0001995892B11F47E0102C02196ECCFC7013B
:1003E000DF91CF911F910F91FF90EF90DF90CF9011
:1003F0000895089580E090E00895FC01538D448DA8
:10040000252F30E0842F90E0821B930B541710F0BF
:10041000CF96089501970895FC01918D828D9817CC
:1004200061F0828DDF01A80FB11D5D968C91928DD8
:100430009F5F9F73928F90E008958FEF9FEF0895D5
:10044000FC01918D828D981731F0828DE80FF11D9E
:10045000858D90E008958FEF9FEF0895FC01918DB9
:10046000228D892F90E0805C9F4F821B91098F73B2
:100470009927089587E998E00E942E0221E0892BB0
:1004800009F420E0822F089580E090E0892B21F08C
:100490000E943D07811121C080E090E0892B21F06E
:1004A0000E943A0281111CC080E090E0892B41F04B
:1004B00080E090E0892B21F00E940000811113C0A0
:1004C00080E090E0892BA1F080E090E0892B81F022
:1004D0000E94000081110AC008950E940000DCCF34
:1004E0000E940000E1CF0E940000EACF0C940000BF
:1004F00008950E947A1B0F931F93CF93DF93EC0113
:1005000088819981009729F02A813B812617370736
:1005100088F48B016F5F7F4F0E94911A009761F002
:10052000998388831B830A832C813D81232B11F4BB
:10053000FC01108281E001C080E0DF91CF911F912A
:100540000F910895EF92FF920F931F93CF93DF9334
:10055000FC01248135816115710511F480E019C019
:1005600041155105A9F07B01EC018A01020F131F0F
:10057000B8010E947B02882389F3288139818C810C
:100580009D81B701820F931F0E94881B1D830C83DE
:1005900081E0DF91CF911F910F91FF90EF9008952F
:1005A000CF93DF93EC0188819981009711F00E942D
:1005B000F919198218821D821C821B821A82DF910E
:1005C000CF910895EF92FF920F931F93CF93DF93F4
:1005D000EC017B018A01BA010E947B02811104C0F7
:1005E000CE010E94D00207C01D830C83B701888111
:1005F00099810E94881BCE01DF91CF911F910F91AD
:10060000FF90EF900895CF93DF93EC016115710592
:1006100059F0FB0101900020E9F73197AF01461B2B
:10062000570B0E94E20202C00E94D002CE01DF916D
:10063000CF9108951F920F920FB60F9211242F930E
:100640003F938F939F93AF93BF938091D7079091E0
:10065000D807A091D907B091DA073091D60723E0E7
:10066000230F2D3720F40196A11DB11D05C026E8EA
:10067000230F0296A11DB11D2093D6078093D707A3
:100680009093D807A093D907B093DA078091DB073E
:100690009091DC07A091DD07B091DE070196A11DC6
:1006A000B11D8093DB079093DC07A093DD07B09327
:1006B000DE07BF91AF919F918F913F912F910F9046
:1006C0000FBE0F901F901895CF93DF93EC0161152B
:1006D000710561F0FB0101900020E9F73197AF014E
:1006E000461B570B0E94A202811103C0CE010E943B
:1006F000D002CE01DF91CF910895CF93DF93EC012B
:10070000FB0144815581608171810E94A2028111A7
:1007100003C0CE010E94D002CE01DF91CF91089597
:10072000EF92FF920F931F93CF93DF9361157105A3
:1007300011F480E01EC08B01EC01CB010E94961BDE
:100740000097B1F02C813D817C01E20EF31EB701D0
:10075000CE010E947B02882361F3288139818C813C
:100760009D81B801820F931F0E948F1BFD82EC8236
:1007700081E0DF91CF911F910F91FF90EF9008954D
:10078000FB0144815581608171810C94A202CF9359
:10079000DF93EC01FB018617970761F0608171819F
:1007A0006115710529F0448155810E94E20202C061
:1007B0000E94D002CE01DF91CF910895FC0180818B
:1007C00091810C94F9190F931F93CF93DF93CDB7B9
:1007D000DEB762970FB6F894DEBF0FBECDBF8C01B7
:1007E000CB01F801118210821382128215821482C9
:1007F00050E0BE016F5F7F4F0E949F1BBE016F5F85
:100800007F4FC8010E94030362960FB6F894DEBFC3
:100810000FBECDBFDF91CF911F910F9108950F9320
:100820001F93CF93DF93CDB7DEB729970FB6F89418
:10083000DEBF0FBECDBF8C01862FF8011182108262
:10084000138212821582148250E0BE016F5F7F4FC7
:1008500090E00E94B51BBE016F5F7F4FC8010E94F0
:10086000030329960FB6F894DEBF0FBECDBFDF910C
:10087000CF911F910F910895EF92FF920F931F93C5
:10088000CF93DF93EC01198218821B821A821D829A
:100890001C826115710509F18B01CB010E94961B29
:1008A0007C01BC01CE010E947B02811109C0CE01F6
:1008B000DF91CF911F910F91FF90EF900C94D00298
:1008C000FD82EC82B80188819981DF91CF911F91DF
:1008D0000F91FF90EF900C948F1BDF91CF911F91A0
:1008E0000F91FF90EF900895FC0111821082138206
:1008F0001282158214820C94C703CF93DF9300D029
:1009000000D0CDB7DEB7BC01CE0101960E947404C1
:10091000BE016F5F7F4F82EA99E00E941D0BCE01FE
:1009200001960E94DE0326960FB6F894DEBF0FBE36
:10093000CDBFDF91CF910895FC0111821082138207
:100940001282158214826115710551F0FB0101902C
:100950000020E9F73197AF01461B570B0C94E202D8
:100960000895FC01A089B1898C91A689B78982FD7F
:100970000FC09C91818D8F5F8F73228D821749F0FC
:10098000218DDF01A20FB11D5D969C93818F08958B
:100990008C9108951F920F920FB60F9211240BB6EF
:1009A0000F922F933F934F935F936F937F938F9308
:1009B0009F93AF93BF93EF93FF9387E998E00E94D3
:1009C000B104FF91EF91BF91AF919F918F917F9172
:1009D0006F915F914F913F912F910F900BBE0F90B0
:1009E0000FBE0F901F901895FC01848DDF01A80F9A
:1009F000B11DA35ABF4F2C91848D90E001968F7347
:100A00009927848FA689B7892C93A089B1898C9165
:100A100080648C93938D848D981306C00288F3892B
:100A2000E02D80818F7D808308951F920F920FB6F5
:100A30000F9211240BB60F922F933F934F935F9316
:100A40006F937F938F939F93AF93BF93EF93FF9396
:100A500087E998E00E94F404FF91EF91BF91AF9174
:100A60009F918F917F916F915F914F913F912F91C6
:100A70000F900BBE0F900FBE0F901F901895EF9226
:100A8000FF920F931F93CF93DF93EC0181E0888F48
:100A90009B8D8C8D981305C0E889F989808185FD2F
:100AA00024C0F62E0B8D10E00F5F1F4F0F73112720
:100AB000E02E8C8DE8120CC00FB607FCFACFE88947
:100AC000F989808185FFF5CFCE010E94F404F1CF32
:100AD0008B8DFE01E80FF11DE35AFF4FF0820B8F63
:100AE000EA89FB898081806207C0EE89FF89608383
:100AF000E889F98980818064808381E090E0DF91DA
:100B0000CF911F910F91FF90EF900895CF93DF93B6
:100B1000EC01888D8823C9F0EA89FB89808185FDF5
:100B200005C0A889B9898C9186FD0FC00FB607FC56
:100B3000F5CF808185FFF2CFA889B9898C9185FF97
:100B4000EDCFCE010E94F404E7CFDF91CF9108955D
:100B50004F925F926F927F928F929F92AF92BF92CD
:100B6000CF92DF92EF92FF920F931F93CF93DF9379
:100B70004B015C018091F6079091F707A091F8076F
:100B8000B091F90788169906AA06BB0609F4C2C0F7
:100B90008CE3C82ED12CE12CF12CC501B401A701A6
:100BA00096010E9426196093EF07CA01B901A701B7
:100BB00096010E9426196093F007CA01B90128E145
:100BC00030E040E050E00E94261969017A0160930C
:100BD000F107CA01B9016C5F7F4F8F4F9F4F27E02C
:100BE00030E040E050E00E9426196F5F6093F2070A
:100BF000412C512C320140E004E610E0C0E9D1E084
:100C0000242F30E02E54384FF901E370FF2730973E
:100C100089F4C901B8010E941219892B31F4C90164
:100C2000BE010E941219892B29F48EE691E0A0E002
:100C3000B0E004C08DE691E0A0E0B0E0480E591E9F
:100C40006A1E7B1ED301C201AA27BB27C816D9067C
:100C5000EA06FB0610F04F5FD3CF4093F5073097BD
:100C600099F4C90164E670E00E941219892B39F4E5
:100C7000C90160E971E00E941219892B29F48EE6FE
:100C800091E0A0E0B0E004C08DE691E0A0E0B0E02B
:100C9000481A590A6A0A7B0AC418D508E608F708F0
:100CA000C90164E670E00E941219EC01C90160E913
:100CB00071E00E941219A6E0B2E020E0213039F480
:100CC000309749F4209729F4009729F402C04C91F9
:100CD00003C04DE101C04CE150E060E070E0C4169B
:100CE000D506E606F70640F0C41AD50AE60AF70A62
:100CF0002F5F11962C3011F72F5F2093F407C394C8
:100D0000C092F3078092F6079092F707A092F80737
:100D1000B092F907DF91CF911F910F91FF90EF9063
:100D2000DF90CF90BF90AF909F908F907F906F900B
:100D30005F904F900895362F90E0FC01E25FFD4FE9
:100D40004491FC01EB52FD4F2491FC01E157FD4F12
:100D50009491992309F46BC0442309F455C050E0E1
:100D6000FA013197E231F10508F04EC08827E458C6
:100D7000FF4F8F4F0C944819809180008F7707C0E8
:100D8000809180008F7D03C080918000877F809359
:100D900080003AC084B58F7702C084B58F7D84BD52
:100DA00033C08091B0008F7703C08091B0008F7DF9
:100DB0008093B00029C0809190008F7707C0809108
:100DC00090008F7D03C080919000877F809390007A
:100DD0001BC08091A0008F7707C08091A0008F7DFD
:100DE00003C08091A000877F8093A0000DC08091F8
:100DF00020018F7707C0809120018F7D03C08091F3
:100E00002001877F80932001E92FF0E0EE0FFF1F84
:100E1000E55AFD4FA591B4918FB7F894EC9131113B
:100E200003C020952E2301C02E2B2C938FBF089535
:100E30003FB7F8948091DB079091DC07A091DD0724
:100E4000B091DE0726B5A89B05C02F3F19F001968B
:100E5000A11DB11D3FBFBA2FA92F982F8827820F40
:100E6000911DA11DB11DBC01CD0142E0660F771F90
:100E7000881F991F4A95D1F708958AEF97E00E943D
:100E80002E0221E0892B09F420E0822F0895EF92B1
:100E9000FF920F931F93CF93DF9300D000D0CDB775
:100EA000DEB78C017A0166E572E00E943C048AE0BC
:100EB000E816F1042CF464E572E0C8010E94900386
:100EC0004AE0B701CE0101960E94E303BE016F5FC5
:100ED0007F4FC8010E94C003CE0101960E94DE032D
:100EE000C80126960FB6F894DEBF0FBECDBFDF91C6
:100EF000CF911F910F91FF90EF90089590E0FC012A
:100F0000EB52FD4F2491FC01E157FD4F8491882362
:100F100099F090E0880F991FFC01EB58FD4FA591C7
:100F2000B491FC01E55AFD4F859194918FB7F894E7
:100F3000EC91E22BEC938FBF08951F920F920FB6A6
:100F40000F9211240BB60F922F933F934F935F9301
:100F50006F937F938F939F93AF93BF93EF93FF9381
:100F60008AEF97E00E94F404FF91EF91BF91AF9157
:100F70009F918F917F916F915F914F913F912F91B1
:100F80000F900BBE0F900FBE0F901F9018951F92E1
:100F90000F920FB60F9211240BB60F922F933F931F
:100FA0004F935F936F937F938F939F93AF93BF9371
:100FB000EF93FF938AEF97E00E94B104FF91EF91C6
:100FC000BF91AF919F918F917F916F915F914F9161
:100FD0003F912F910F900BBE0F900FBE0F901F905F
:100FE0001895EF92FF920F931F93CF93DF93EC012D
:100FF0007B0169E077E008960E949C048E01025F05
:101000001F4F69E077E0C8010E949C048AEF97E0D7
:101010009983888380E092ECA1E0B0E08C839D838B
:10102000AE83BF838FEA94E09B838A83B701C801B4
:10103000DF91CF911F910F91FF90EF900C94C70318
:101040008F929F92AF92BF92CF92DF92EF92FF92D8
:101050006B017C010E9418074B015C01C114D10493
:10106000E104F104F1F00E941807DC01CB018819BA
:101070009909AA09BB09883E9340A105B10570F3FF
:1010800021E0C21AD108E108F10888EE880E83E059
:10109000981EA11CB11CC114D104E104F10419F77C
:1010A000DDCFFF90EF90DF90CF90BF90AF909F90FB
:1010B0008F9008952FB7F8946091D7077091D80753
:1010C0008091D9079091DA072FBF0895CF93DF93CE
:1010D000EC010E945A08688379838A839B83DF919D
:1010E000CF910895CF93DF93CDB7DEB762970FB658
:1010F000F894DEBF0FBECDBF88E290E00E94630F80
:10110000882309F477C0809195098F3F71F463EBD0
:1011100074E0CE0101960E949C04CE0101960E94CB
:101120005712CE0101960E94DE0368EC70E080E069
:1011300090E00E94200860918109609395096111F7
:1011400016C088E290E00E943B11809195098111C0
:1011500078C061E088E290E00E949411882321F039
:1011600081E080939D096DC010929D096AC08091B5
:1011700096091616E4F56A3074F4681709F461C02C
:10118000062E000C770B4AE0CE0107960E94E3037F
:101190006DEC74E00DC0681709F453C0062E000C06
:1011A000770B4AE0CE0107960E94E30363EE74E0FA
:1011B000CE010D960E949C04BE01695F7F4FCE0157
:1011C0000D960E947D03BC01CE0101960E9474041D
:1011D000CE0101960E945712CE0101960E94DE03B5
:1011E000CE010D960E94DE03CE01079624C068133F
:1011F00008C027C08FEF80939509809196098F3F93
:1012000001F168EF74E0CE0101960E949C04CE01CA
:1012100001960E945712CE0101960E94DE0365E1FD
:1012200075E0CE0101960E949C04CE0101960E94B9
:101230005712CE0101960E94DE038091950980939A
:1012400096098091950981111EC080919609882385
:10125000A1F06CE275E0CE0101960E949C04CE01E3
:1012600001960E945712CE0101960E94DE03109251
:101270009209809195098093960984E899E00E94EB
:10128000660881E001C080E062960FB6F894DEBF88
:101290000FBECDBFDF91CF910895CF93DF93CDB730
:1012A000DEB762970FB6F894DEBF0FBECDBF65E420
:1012B00075E0CE0101960E949C04CE0101960E9429
:1012C000140DCE0101960E94DE0382E090E090931F
:1012D0004109809340091092420981E090E0909387
:1012E00044098093430990934609809345098CEF04
:1012F00080934F090E949C0D61E085E00E94F90DEA
:10130000882339F00E94950E811119C065E575E0BA
:1013100002C065E675E0CE0101960E949C04CE01F4
:1013200001960E94140DCE0101960E94DE038FEFFC
:1013300080939309809194098F3F89F550C08091E3
:1013400093098F3F71F465E775E0CE0101960E9425
:101350009C04CE0101960E945712CE0101960E9474
:10136000DE0368EC70E080E090E00E94200882E0FC
:1013700090E00E94630F68EC70E080E090E00E94D3
:1013800020086091810960939309662309F449C09C
:101390008091940916160CF452C0681701F16AEB9B
:1013A00075E0CE0101960E949C04CE0101960E9438
:1013B0005712CE0101960E94DE0367ED75E0CE0163
:1013C00001960E949C04CE0101960E945712CE0104
:1013D00001960E94DE038091930980939409809185
:1013E000930981111CC080919409882391F06EEEBD
:1013F00075E0CE0101960E949C04CE0101960E94E8
:101400005712CE0101960E94DE03809193098093CA
:10141000940988E899E00E94660881E04BC080E06A
:1014200049C082E090E00E943B1180919C09882392
:1014300019F00E94630AD3CF0E944B12D0CF6A30BA
:101440006CF4681761F2062E000C770B4AE0CE01AF
:1014500007960E94E3036FE875E00DC0681709F472
:10146000BECF062E000C770B4AE0CE0107960E94F5
:10147000E30365EA75E0CE010D960E949C04BE016F
:10148000695F7F4FCE010D960E947D03BC01CE01A6
:1014900001960E947404CE0101960E945712CE015B
:1014A00001960E94DE03CE010D960E94DE03CE015E
:1014B00007968FCF62960FB6F894DEBF0FBECDBFF2
:1014C000DF91CF9108958091930981110FC061E060
:1014D00082E090E00E949411882321F081E08093C3
:1014E0009C09089510929C090C944D0908950F933E
:1014F0001F93CF93DF93EC010E945A080881198152
:101500002A813B81601771078207930718F4CE0187
:101510000E9466080E945A08088119812A813B812D
:10152000DC01CB01801B910BA20BB30B21E0843FAC
:101530009140A105B10508F420E0822FDF91CF9101
:101540001F910F9108951F93CF93DF9300D000D088
:10155000CDB7DEB7182F80918C091817D1F0112361
:1015600019F067E076E002C063E276E0CE01019612
:101570000E949C04CE0101960E945712CE01019652
:101580000E94DE03612F809197090E949B061093B1
:101590008C0988E899E00E94660888E899E00E9432
:1015A000770A811103C00E94FB0CF7CF26960FB675
:1015B000F894DEBF0FBECDBFDF91CF911F9108958C
:1015C0001F93CF93DF9300D000D0CDB7DEB7182F95
:1015D00080918D091817D1F0112319F06EE376E090
:1015E00002C06AE576E0CE0101960E949C04CE011D
:1015F00001960E945712CE0101960E94DE03612FD0
:10160000809198090E949B0610938D0984E899E0C7
:101610000E94660884E899E00E94770A811103C05D
:101620000E94FB0CF7CF26960FB6F894DEBF0FBED4
:10163000CDBFDF91CF911F9108954F925F926F922E
:101640007F928F929F92AF92BF92EF92FF920F93F1
:101650001F93CF93DF93CDB7DEB76E970FB6F89495
:10166000DEBF0FBECDBF8C017B0169E077E0CE010C
:101670000D960E949C04B701CE0143960E9474040B
:1016800069E077E0CE0149960E949C0478012EE043
:10169000E20EF11C0E945A084090E7075090E807BC
:1016A0006090E9077090EA074B015C018418950887
:1016B000A608B7088091EB079091EC07A091ED0781
:1016C000B091EE07E8EE8E16E3E09E06A104B104A9
:1016D000D0F00196A11DB11D8093EB079093EC070C
:1016E000A093ED07B093EE07B301A20148515C4F00
:1016F0006F4F7F4F4093E7075093E8076093E907E8
:101700007093EA07C7CF4091E3075091E4076091D7
:10171000E5077091E60784179507A607B70708F451
:1017200056C0E091E107F091E207309709F44FC00D
:101730001995611571058105910539F16093EB07E4
:101740007093EC078093ED079093EE07DC01CB01DB
:10175000845D9E4FAF4FBF4F8093E3079093E407A4
:10176000A093E507B093E60782E090E09093E0074E
:101770008093DF070E945A086093E7077093E80799
:101780008093E9079093EA0722C08091EB0790913C
:10179000EC07A091ED07B091EE07845D9E4FAF4F2F
:1017A000BF4F8093E3079093E407A093E507B093BE
:1017B000E60781E090E02091DF073091E007232BDE
:1017C00011F480E090E09093E0078093DF07809031
:1017D000EB079090EC07A090ED07B090EE07C501E5
:1017E000B4010E94A8054091F10750E0B801CE0174
:1017F00007960E94470769E572E0CE0107960E94AE
:101800009003C501B4010E94A8054091F00750E083
:10181000B801CE0101960E944707BE016F5F7F4F5E
:10182000CE0107960E94C003CE0101960E94DE03FE
:1018300067E572E0CE0107960E949003C501B401EE
:101840000E94A8054091EF0750E0B801CE01019633
:101850000E944707BE016F5F7F4FCE0107960E942F
:10186000C003CE0101960E94DE03BE01695F7F4F77
:10187000CE0101960E94740467E776E0CE010196DE
:101880000E946403B7010E947D0365E776E00E9431
:101890006403BE016D5E7F4F0E947D03BC01CE01DB
:1018A00049960E94C703CE0101960E94DE03CE0135
:1018B00007960E94DE038D859E850097A9F0698DAD
:1018C0007A8D6115710571F04F8558892D8D3E8D8A
:1018D0004217530738F00E94881B8D8D9E8D9A8B7E
:1018E000898B12C00E94F919898D9A8D9E878D87E8
:1018F0008B8D9C8D988B8F878D8D9E8D9A8B898BF0
:101900001A8E198E1C8E1B8E1E8E1D8ECE01499630
:101910000E94DE03CE0143960E94DE03D8010D91A2
:101920001C91D801ED91FC9149895A896D857E857C
:101930000280F381E02DC8011995D801ED91FC9149
:101940000280F381E02D42E050E067E077E0C801DB
:101950001995CE010D960E94DE036E960FB6F8948F
:10196000DEBF0FBECDBFDF91CF911F910F91FF90D2
:10197000EF90BF90AF909F908F907F906F905F900F
:101980004F9008950E945A0860933C0970933D0956
:1019900080933E0990933F0908950F931F930E94EF
:1019A0005A0800913C0910913D0920913E0930915F
:1019B0003F09601771078207930710F40E94C20C59
:1019C0000E945A0800913C0910913D0920913E095E
:1019D00030913F09DC01CB01801B910BA20BB30BB3
:1019E00021E0883C9105A105B10508F420E0822F93
:1019F0001F910F9108958091360990913709DC016C
:101A0000ED91FC910084F185E02D1995892B59F019
:101A10008091360990913709DC01ED91FC910284A7
:101A2000F385E02D19940895CF93DF9300D000D073
:101A3000CDB7DEB7BC01CE0101960E947404BE0191
:101A40006F5F7F4F80913409909135090E941D0B83
:101A5000CE0101960E94DE0326960FB6F894DEBFF3
:101A60000FBECDBFDF91CF910895CF92DF92EF925D
:101A7000FF920F931F93CF93DF93EC016A017B01D9
:101A8000E889F98982E080834115514E610571052D
:101A9000B1F060E079E08DE390E0A70196010E944B
:101AA000261989019A010150110921093109369538
:101AB000279517950795980101151041A8F0E88919
:101AC000F989108260E874E88EE190E0A701960140
:101AD0000E942619DA01C9010197A109B109B69539
:101AE000A795979587959C01EC85FD853083EE85BC
:101AF000FF852083188EEC89FD8986E08083EA8942
:101B0000FB89808180618083EA89FB89808188608C
:101B10008083EA89FB89808180688083EA89FB89E8
:101B200080818F7D8083DF91CF911F910F91FF90F6
:101B3000EF90DF90CF900895FF920F931F93CF9374
:101B4000DF93CDB7DEB7C058D1090FB6F894DEBF2A
:101B50000FBECDBF809140098983009142090A835D
:101B6000809143098B83809145098C83FE013596D2
:101B700080E090E010E08017910744F4DC01AC5C59
:101B8000B64F53962C9121930196F5CF0C5F1F4FC2
:101B9000E1E0F0E0EC0FFD1FE00FF11F80914F0935
:101BA0008083F12C2F2D30E002171307A4F08091D1
:101BB000360990913709DC01ED91FC91A1E0B0E08C
:101BC000AC0FBD1FA20FB31F0190F081E02D6C91EF
:101BD0001995F394E7CF80E0C058DF4F0FB6F89423
:101BE000DEBF0FBECDBFDF91CF911F910F91FF9050
:101BF00008950F931F93CF93DF93CDB7DEB762970E
:101C00000FB6F894DEBF0FBECDBF182F062F69E0C8
:101C100077E0CE010D960E949C040E94C20C112315
:101C200009F452C08091360990913709DC01ED9199
:101C3000FC910084F185E02D1995892B81F180912B
:101C4000360990913709DC01ED91FC910284F3850E
:101C5000E02D1995002301F14AE0682FCE01079687
:101C60000E940F04BE01695F7F4FCE0101960E9462
:101C7000740467E776E0CE0101960E946403BC011C
:101C8000CE010D960E94C003CE0101960E94DE0394
:101C9000CE0107960E94DE0311500E94C20C0E94E2
:101CA000CD0C882309F4BBCF6EE776E0CE01019618
:101CB0000E949C04CE0101960E94140DCE01019653
:101CC0000E94DE0310E021C00023F1F060EA76E01C
:101CD000CE0107960E949C04BE01635F7F4FCE0138
:101CE00007960E947D03BC01CE0101960E947404F8
:101CF000CE0101960E94140DCE0101960E94DE03D2
:101D0000CE0107960E94DE0311E0CE010D960E94DF
:101D1000DE03812F62960FB6F894DEBF0FBECDBFF3
:101D2000DF91CF911F910F910895CF92DF92FF9293
:101D30000F931F93CF93DF93CDB7DEB762970FB6A4
:101D4000F894DEBF0FBECDBF69E077E0CE010D96FF
:101D50000E949C040E94C20C00E010E080913609B1
:101D600090913709DC01ED91FC910084F185E02D23
:101D70001995892B41F00530110509F04EC085E019
:101D8000C82ED12C01C068010E94CD0CF82E811103
:101D900025C0B5E0CB16D10409F76FEA76E0CE0195
:101DA00007960E949C04BE01635F7F4FCE01079699
:101DB0000E947D03BC01CE0101960E947404CE01F5
:101DC00001960E94140DCE0101960E94DE03CE0101
:101DD00007960E94DE030530110511F0F12C60C05A
:101DE00020E080E090E0FC01EC5CF64F348D230FA6
:101DF000019685309105B9F780915209883221F01A
:101E0000809152098230F1F58091530981113AC0D5
:101E1000211138C0FF24F39443C08091360990917A
:101E20003709DC01ED91FC910284F385E02D1995D1
:101E3000F82E4AE0682FCE0107960E940F04BE01DB
:101E4000695F7F4FCE0101960E94740467E776E0D8
:101E5000CE0101960E946403BC01CE010D960E9442
:101E6000C003CE0101960E94DE03CE0107960E94B8
:101E7000DE03F801EC5CF64FF48E0F5F1F4F0E94FB
:101E8000C20C6CCF6CEB76E0CE0101960E949C04F4
:101E9000CE0101960E94140DCE0101960E94DE0330
:101EA000CE010D960E94DE038F2D62960FB6F89438
:101EB000DEBF0FBECDBFDF91CF911F910F91FF907D
:101EC000DF90CF900895CF92DF92EF92FF920F9321
:101ED0001F93CF93DF93CDB7DEB762970FB6F89419
:101EE000DEBF0FBECDBF8093400990934109109291
:101EF000420921E030E0309344092093430928EE61
:101F000030E03093460920934509875181958093AD
:101F10004F090E949C0D61E085E00E94F90D182F89
:101F2000882309F4C4C069E077E0CE010D960E94D1
:101F30009C040E94C20CC12CD12C80913609909136
:101F40003709DC01ED91FC910084F185E02D1995B4
:101F5000892B49F0B6E0CB16D10409F051C086E0D8
:101F6000E82EF12C01C076010E94CD0C81119DC09C
:101F700086E0E816F10409F76BED76E0CE010196F4
:101F80000E949C04BE01635F7F4FCE0101960E94B8
:101F90007D03BC01CE0107960E947404CE01079612
:101FA0000E94140DCE0107960E94DE03CE01019619
:101FB0000E94DE03A6E0CA16D10409F076C020E034
:101FC00080E090E0FC01EC5CF64F31A1230F01961C
:101FD00086309105B9F780915209883229F08091B5
:101FE0005209823009F042C0211140C08091590944
:101FF00080938109CE010D960E94DE03117057C0B7
:102000008091360990913709DC01ED91FC910284B1
:10201000F385E02D1995082F4AE0682FCE0101962F
:102020000E940F04BE016F5F7F4FCE0107960E9492
:10203000740467E776E0CE0107960E946403BC0152
:10204000CE010D960E94C003CE0107960E94DE03CA
:10205000CE0101960E94DE03F601EC5CF64F01A36F
:10206000BFEFCB1ADB0A0E94C20C67CF61EF76E0AC
:10207000CE0101960E949C04CE0101960E94140D8F
:10208000CE0101960E94DE036AE077E0CE01019660
:102090000E949C04CE0101960E94140DCE0101966F
:1020A0000E94DE038FEF8093810910E0A3CF812F80
:1020B00062960FB6F894DEBF0FBECDBFDF91CF9111
:1020C0001F910F91FF90EF90DF90CF900895BF92F6
:1020D000CF92DF92EF92FF920F931F93CF93DF93F4
:1020E000CDB7DEB762970FB6F894DEBF0FBECDBF97
:1020F0007C0190934109809340091092420981E04C
:1021000090E0909344098093430982E0E816F1043B
:1021100019F485EE90E006C0A8E2EA16F10431F465
:102120008FE990E090934609809345098091450995
:1021300080958E1980934F090E949C0D81E08093B9
:102140007B0960E085E00E94F90DD82E882309F410
:1021500081C069E077E0CE010D960E949C040E9448
:10216000C20CC12CB12C0C2D1B2D809136099091E5
:102170003709DC01ED91FC910084F185E02D199582
:10218000892B09F449C00031110521F480E1C82EE2
:10219000B12C44C08091360990913709DC01ED9152
:1021A000FC910284F385E02D1995C82E4AE0682F32
:1021B000CE0101960E940F04BE016F5F7F4FCE01DA
:1021C00007960E94740467E776E0CE0107960E94A6
:1021D0006403BC01CE010D960E94C003CE01079698
:1021E0000E94DE03CE0101960E94DE03B2E0EB16F0
:1021F000F10429F4F801EC5CF64FC7A208C0B8E27C
:10220000EB16F10421F4F801EC5CF64FC7AA0F5F5E
:102210001F4F0E94C20CA9CFC02EB12E0E94CD0C20
:10222000882381F06EE177E0CE0101960E949C0444
:10223000CE0101960E94140DCE0101960E94DE038C
:10224000D12C04C00031110509F08DCFCE010D96BF
:102250000E94DE038D2D62960FB6F894DEBF0FBE8E
:10226000CDBFDF91CF911F910F91FF90EF90DF9045
:10227000CF90BF9008950F931F93CF93DF9300D01B
:1022800000D0CDB7DEB78C0161E477E0CE010196D6
:102290000E949C04CE0101960E94140DCE0101966D
:1022A0000E94DE03109341090093400982E080936D
:1022B000420981E090E0909344098093430987EEBE
:1022C00090E090934609809345090230110529F466
:1022D00080E8809347098FEF07C00832110531F479
:1022E0008FEF8093470983E08093480990914709D5
:1022F00080914809890F8651080F019500934F0975
:102300000E949C0D61E087E00E94F90D81110E94FE
:10231000950E26960FB6F894DEBF0FBECDBFDF91A7
:10232000CF911F910F910895FF920F931F93CF9319
:10233000DF9300D000D0CDB7DEB7182FF92E062FCF
:10234000662319F060E577E002C061E677E0CE0130
:1023500001960E949C04CE0101960E94140DCE01AC
:1023600001960E94DE0310934009F092410981E03A
:102370008093420921E030E03093440920934309DF
:1023800024EE30E03093460920934509002319F0EC
:102390008093470902C010924709809147098A51EA
:1023A000180F119510934F090E949C0D61E086E073
:1023B0000E94F90D81110E94950E26960FB6F89491
:1023C000DEBF0FBECDBFDF91CF911F910F91FF9068
:1023D0000895CF93DF9300D000D0CDB7DEB790E063
:1023E000FC013897E830F10508F04AC08827E25729
:1023F000FF4F8F4F0C94481963E777E0CE010196A9
:102400000E949C04CE0101960E94140DCE010196FB
:102410000E94DE0381E090E035C066E877E0CE01FF
:1024200001960E949C04CE0101960E94140DCE01DB
:1024300001960E94DE0382E090E024C069E977E023
:10244000CE0101960E949C04CE0101960E94140DBB
:10245000CE0101960E94DE0385E090E013C06CEA95
:1024600077E0CE0101960E949C04CE0101960E9465
:10247000140DCE0101960E94DE038AE090E002C0B6
:1024800080E090E026960FB6F894DEBF0FBECDBF79
:10249000DF91CF91089580919309811107C060E089
:1024A00082E090E00E94941110929C090895CF93CD
:1024B000DF9300D000D0CDB7DEB7BC01CE010196CE
:1024C0000E947404BE016F5F7F4F809182099091DA
:1024D00083090E941D0BCE0101960E94DE03269601
:1024E0000FB6F894DEBF0FBECDBFDF91CF91089538
:1024F000CF93DF93CDB7DEB76D970FB6F894DEBFFD
:102500000FBECDBF789484B5826084BD84B58160F0
:1025100084BD85B5826085BD85B5816085BD8091AE
:102520006E00816080936E00109281008091810026
:10253000826080938100809181008160809381001E
:10254000809180008160809380008091B1008460E0
:102550008093B1008091B00081608093B000809141
:1025600091008260809391008091910081608093BE
:102570009100809190008160809390008091A100F3
:1025800082608093A1008091A10081608093A1006E
:102590008091A00081608093A000809121018260E1
:1025A000809321018091210181608093210180919C
:1025B000200181608093200180917A008460809363
:1025C0007A0080917A00826080937A0080917A000C
:1025D000816080937A0080917A00806880937A008D
:1025E0001092C1004091A6095091A7096091A809D5
:1025F0007091A9098091A2099091A3090E94350DBB
:1026000063EE71E0CE0101960E943C04CE0101967A
:102610000E947D04CE0101960E94DE0368EB71E00A
:10262000CE0101960E943C04CE0101960E947D04D9
:10263000CE0101960E94DE0364E272E0CE010196B3
:102640000E949C04CE0101960E945712CE01019671
:102650000E94DE0387E998E090933709809336095A
:1026600080E895E2A0E0B0E08093380990933909C2
:10267000A0933A09B0933B0940E855E260E070E06E
:1026800087E998E00E94350D8091360990913709CD
:10269000DC01ED91FC910680F781E02D199589E030
:1026A000809398090E947E0711E010938D0980E0C5
:1026B0000E94E00A64EF71E080E090E00E94200850
:1026C0008AE0809397090E947E0710938C0980E02E
:1026D0000E94A30A64EF71E080E090E00E9420086D
:1026E00081E00E94E00A60ED77E080E090E00E94E7
:1026F000200881E00E94A30A64EF71E080E090E08E
:102700000E9420086DE272E0CE0101960E949C04B6
:10271000CE0101960E945712CE0101960E94DE035F
:102720008FEF8093930910939C090E944D098111AA
:1027300010939C096EE372E0CE0101960E949C0406
:10274000CE0101960E945712CE0101960E94DE032F
:102750008FEF809395090E947208882319F081E019
:1027600080939D09BB24B394EE24E394F12C2AE9D1
:10277000C22ED12C3BE3A32E8091CF078111109262
:10278000CF078091CE07882309F4C0C180919309B7
:102790008111C6C080919C09882309F4C1C0809131
:1027A00099098F5F80939909823008F4B9C082E05B
:1027B00090E00E946710882309F4A6C080915F0909
:1027C00020917C0990E0821B91090297C4F09090BF
:1027D0005F09921AE92DEE0F00E010E08EEF782EDF
:1027E0007E0E992081F1ED5FF0E0EC5CF64F87A161
:1027F0000E94E911080F191F9A94E72DEFCF8091DD
:102800006009882351F080915F092817D1F08091E9
:1028100060090E94E9118C0116C080915F0928139C
:1028200010C0809161098E3051F480917E098F5FD4
:1028300080937E09853128F010927E092CC0109279
:102840007E0900E010E080915F0980937C090F3FD2
:1028500011F180918E0990918F09800F911D07FDD4
:102860009A9590938F0980938E0980919B09882374
:1028700009F454C06FE472E0CE0101960E949C04FA
:10288000CE0101960E945712CE0101960E94DE03EE
:102890000E94630A36C04AE060919B09CE014296CD
:1028A0000E940F0464E572E0CE0148960E949C04E9
:1028B000BE016E5E7F4FCE0148960E947D03BC0133
:1028C000CE0101960E947404CE0101960E94571217
:1028D000CE0101960E94DE03CE0148960E94DE03DF
:1028E000CE0142960E94DE0380919B098F5F809308
:1028F0009B098B3098F00E944B12B0929C090E9469
:102900004D0910929B090AC04AE060919B09CE01D3
:1029100042960E940F0464E772E0C6CF10929909B4
:10292000809195098111F0C080919D09882309F457
:10293000EBC080919A098F5F80939A09843008F4E4
:10294000E3C088E290E00E946710882309F4DAC0AF
:102950009091700980917D09992309F496C0909116
:102960006F09891709F4A5C0E09170099091710968
:10297000909380094E2F50E0FA013197EA30F1052B
:1029800008F074C08827EE58FF4F8F4F0C944819F9
:10299000913019F462E073E004C091118DC06CE1D4
:1029A00073E0CE0101960E949C04CE0101960E9424
:1029B000140DCE0101960E94DE037EC0913089F095
:1029C00091117DC06FE873E0CE0101960E949C04D6
:1029D000CE0101960E94140DCE0101960E94DE03E5
:1029E0006EC064E773E0F0CF913079F46BEC72E085
:1029F000CE0101960E949C04CE0101960E94140D06
:102A0000CE0101960E94DE035DC091115BC064EEB1
:102A100072E0EECF913079F464E972E0CE01019674
:102A20000E949C04CE0101960E94140DCE010196D5
:102A30000E94DE034AC0911148C06DEA72E0EECFF9
:102A4000913019F46BE373E004C0911141C065E566
:102A500073E0CE0101960E949C04CE0101960E9473
:102A6000140DCE0101960E94DE0332C06FEA73E0BE
:102A7000CE0101960E949C04CE0101960E94140D85
:102A8000CE0101960E94DE0314C090916F09891354
:102A900010C0809171098E3051F480917F098F5F51
:102AA00080937F09853128F010927F0928C0109209
:102AB0007F0980E090E00EC084E690E00BC088EED5
:102AC00093E008C082E390E005C084E190E002C09A
:102AD00084EF91E020916F0920937D09009779F0B0
:102AE00020918009211105C090939F0980939E0930
:102AF00006C0213021F49093A1098093A00910927F
:102B00009A0902C00E9472081092CE078091CD07E8
:102B100081111092CD078091CC0781111092CC07C2
:102B20000E945A086093C8077093C9078093CA0728
:102B30009093CB074090C4075090C5076090C6079C
:102B40007090C7078B019C010419150926093709E4
:102B50000230110521053105B0F12091C307241978
:102B6000260F2093C3076093C4077093C507809313
:102B7000C6079093C7072A3098F11092C307809137
:102B8000C2078F5F8093C207B092CF078A3040F1AF
:102B90001092C2078091C1078F5F8093C107B092E6
:102BA000CE078530E8F01092C1078091C0078F5F93
:102BB0008093C007B092CD07823090F01092C0078A
:102BC000B092CC070DC0641575058605970540F4D5
:102BD0006093C4077093C5078093C6079093C70797
:102BE00060918E0970918F0910928F0910928E0951
:102BF000161617060CF06AC08091D0079091D10785
:102C0000860F971F9093D1078093D0074AE0CE019B
:102C100042960E94E3036EEC73E0CE0148960E9458
:102C20009C04BE016E5E7F4FCE0148960E947D03DC
:102C3000BC01CE0101960E947404CE0101960E944F
:102C40007D04CE0101960E94DE03CE0148960E94CB
:102C5000DE03CE0142960E94DE038091D007909160
:102C6000D1071B8A1A8A1D8A1C8A1F8A1E8A4AE07B
:102C7000BE016F5F7F4F0E94C01BBE016F5F7F4F21
:102C8000CE0142960E94030360EE73E0CE014896A7
:102C90000E949C04BE016E5E7F4FCE0148960E944A
:102CA0007D03BC01CE0101960E947404CE01019601
:102CB0000E947D04CE0101960E94DE03CE0148965B
:102CC0000E94DE03CE0142960E94DE0380919309AA
:102CD000882361F088E899E00E94770A882331F020
:102CE0000E944D0988E899E00E94660810919309B6
:102CF000112309F442C08091D507181709F43FC089
:102D00001F3F69F464EF73E0CE0101960E949C04BA
:102D1000CE0101960E947D04CE01019629C04AE0B1
:102D2000612F012E000C770BCE0142960E94E30327
:102D30006FE074E0CE0148960E949C04BE016E5E76
:102D40007F4FCE0148960E947D03BC01CE010196C3
:102D50000E947404CE0101960E947D04CE0101966A
:102D60000E94DE03CE0148960E94DE03CE01429609
:102D70000E94DE031093D50702C01092D507609120
:102D8000A0097091A1096115710509F466C02CF0C4
:102D90001092A1091092A0090EC060919E09709135
:102DA0009F09161617062CF410929F0910929E097F
:102DB00002C060E070E04AE0CE0142960E94E30368
:102DC00067E274E0CE0148960E949C04BE016E5EEC
:102DD0007F4FCE0148960E947D03BC01CE01019633
:102DE0000E947404CE0101960E947D04CE010196DA
:102DF0000E94DE03CE0148960E94DE03CE01429679
:102E00000E94DE036CE374E0CE0101960E949C04F4
:102E1000CE0101960E94140DCE0101960E94DE03A0
:102E200088E290E09093410980934009B092420972
:102E3000F0924409E0924309D0924609C0924509B4
:102E4000B0924709A0924F090E949C0D60E086E075
:102E50000E94F90D81110E94950E60919E0970915A
:102E60009F096115710509F481C08091A0099091B5
:102E7000A1091816190634F41092A1091092A0099C
:102E8000BC010AC0161617062CF410929F09109266
:102E90009E0902C060E070E08091D2079091D30754
:102EA000860F971F9093D3078093D2074AE0CE01F5
:102EB00042960E94E30361E574E0CE0101960E9410
:102EC0009C04BE016E5E7F4FCE0101960E947D0381
:102ED000BC01CE0148960E947404CE0148960E941F
:102EE0007D04CE0148960E94DE03CE0101960E9429
:102EF000DE03CE0142960E94DE038091D2079091BC
:102F0000D3071B8A1A8A1D8A1C8A1F8A1E8A4AE0D6
:102F1000BE016F5F7F4F0E94C01BBE016F5F7F4F7E
:102F2000CE0142960E94030368E674E0CE0101964A
:102F30000E949C04BE016E5E7F4FCE0101960E94EE
:102F40007D03BC01CE0148960E947404CE014896D0
:102F50000E947D04CE0148960E94DE03CE010196B8
:102F60000E94DE03CE0142960E94DE038091950905
:102F7000882361F084E899E00E94770A882331F081
:102F80000E94720884E899E00E94660810919509F1
:102F9000112309F442C08091D407181709F43FC0E7
:102FA0001F3F69F46CE774E0CE0101960E949C0417
:102FB000CE0101960E947D04CE01019629C04AE00F
:102FC000612F012E000C770BCE0142960E94E30385
:102FD00067E974E0CE0148960E949C04BE016E5ED3
:102FE0007F4FCE0148960E947D03BC01CE01019621
:102FF0000E947404CE0101960E947D04CE010196C8
:103000000E94DE03CE0148960E94DE03CE01429666
:103010000E94DE031093D40702C01092D4070E94CE
:103020004402AACBCF93DF93C0913409D0913509E4
:10303000209759F0CE010E960E94DE03CE0108962D
:103040000E94DE03CE010E94F91980EB99E00E94F4
:10305000DE038AEA99E0DF91CF910C94DE03EF92D0
:10306000FF920F931F93CF93DF9300D000D0CDB783
:10307000DEB7EAEFF7E01382128248EE53E060E039
:1030800070E0448355836683778386E192E0918381
:10309000808325EC30E03587248724EC30E03787C7
:1030A000268720EC30E0318B208B21EC30E0338B15
:1030B000228B22EC30E0358B248B26EC30E0378BF2
:1030C000268B118E128E138E148EE7E9F8E0138290
:1030D00012824483558366837783918380838DEC4A
:1030E00090E0958784878CEC90E09787868788ECC2
:1030F00090E0918B808B89EC90E0938B828B8AECB3
:1031000090E0958B848B8EEC90E0978B868B118E64
:10311000128E138E148E69E776E0CE0101960E941E
:103120009C04BE016F5F7F4F82EA99E00E94F10725
:10313000CE0101960E94DE0302E819E0F801128236
:1031400013821482158216821782108611861286C7
:1031500013861586148617861686108A118A8EEFB6
:10316000828B138A848B89E0858B8AE0868B178A11
:10317000108E118E128E138E158E148E178E168E43
:103180006BE173E0CE0101960E943C0484E190E083
:103190000E9464197C01BE016F5F7F4F0E94F1079E
:1031A000F801F182E082CE0101960E94DE0304E381
:1031B00019E0F801108611861286138681E080934B
:1031C0007B0910927C0910927D0910927E09109261
:1031D0007F098FEF809380091092810969E273E083
:1031E000CE0101960E943C0484E190E00E946419A3
:1031F0007C01BE016F5F7F4F0E94F107F801F182F1
:10320000E082CE0101960E94DE0326960FB6F89466
:10321000DEBF0FBECDBFDF91CF911F910F91FF9009
:10322000EF90089597FB072E16F4009407D077FDD2
:1032300009D00E94501907FC05D03EF49095819565
:103240009F4F0895709561957F4F0895A1E21A2EC2
:10325000AA1BBB1BFD010DC0AA1FBB1FEE1FFF1F3A
:10326000A217B307E407F50720F0A21BB30BE40B8A
:10327000F50B661F771F881F991F1A9469F76095D1
:103280007095809590959B01AC01BD01CF0108958B
:10329000EE0FFF1F881F8BBF0790F691E02D19944A
:1032A000AA1BBB1B51E107C0AA1FBB1FA617B7076C
:1032B00010F0A61BB70B881F991F5A95A9F7809588
:1032C0009095BC01CD010895CF93DF938230910595
:1032D00010F482E090E0E091B809F091B90920E0A3
:1032E00030E0C0E0D0E0309711F1408151814817C3
:1032F0005907C0F04817590761F4828193812097DC
:1033000019F09B838A832BC09093B9098093B809E5
:1033100026C02115310519F04217530718F49A01F8
:10332000BE01DF01EF010280F381E02DDCCF21152A
:10333000310509F1281B390B2430310590F4129620
:103340008D919C9113976115710521F0FB01938379
:10335000828304C09093B9098093B809FD01329625
:1033600044C0FD01E20FF31F819391932250310974
:103370002D933C933AC02091B6093091B709232B85
:1033800041F420910202309103023093B709209357
:10339000B60920910002309101022115310541F456
:1033A0002DB73EB74091040250910502241B350B06
:1033B000E091B609F091B709E217F307A0F42E1BCC
:1033C0003F0B2817390778F0AC014E5F5F4F241789
:1033D000350748F04E0F5F1F5093B7094093B60969
:1033E0008193919302C0E0E0F0E0CF01DF91CF91B3
:1033F00008950F931F93CF93DF93009709F48CC028
:10340000FC013297138212820091B8091091B90918
:103410000115110581F420813181820F931F2091C4
:10342000B6093091B7092817390779F5F093B7092C
:10343000E093B60971C0D80140E050E0AE17BF0775
:1034400050F412962D913C911397AD012115310541
:1034500009F1D901F3CF9D01DA0133832283608121
:103460007181860F971F8217930769F4EC012881F9
:103470003981260F371F2E5F3F4F318320838A818A
:103480009B8193838283452B29F4F093B909E093C0
:10349000B80942C01396FC93EE931297ED0149913F
:1034A00059919E01240F351FE217F30771F48081B3
:1034B0009181840F951F029611969C938E93828121
:1034C000938113969C938E931297E0E0F0E0D801DD
:1034D00012968D919C911397009719F0F8018C0129
:1034E000F6CF8D919C9198012E5F3F4F820F931FD5
:1034F0002091B6093091B7092817390769F4309738
:1035000029F41092B9091092B80902C013821282EC
:103510001093B7090093B609DF91CF911F910F91D6
:1035200008956F927F928F929F92AF92BF92CF92A7
:10353000DF92EF92FF920F931F93CF93DF93EC01F3
:10354000009789F4CB01DF91CF911F910F91FF90EC
:10355000EF90DF90CF90BF90AF909F908F907F9033
:103560006F900C946419FC01E60FF71F9C01225028
:103570003109E217F30708F4ACC0D9010D911C9191
:10358000119706171707B0F00530110508F49FC012
:10359000C80104978617970708F499C002501109CB
:1035A000061B170B019311936D937C93CF010E941F
:1035B000F9198DC05B01A01AB10A4C01800E911E51
:1035C000A091B809B091B90940E050E0E12CF12C8C
:1035D000109709F44AC0A815B905D1F56D907C90F3
:1035E0001197630182E0C80ED11CCA14DB0480F17C
:1035F000A3014A195B096A0182E0C80ED11C129628
:10360000BC9012971396AC91B5E0CB16D10440F064
:10361000B282A38351834083D9016D937C930AC006
:103620000E5F1F4FC301800F911FF90191838083AB
:10363000EB2DFA2FE114F10431F0D7011396FC932E
:10364000EE93129744C0F093B909E093B8093FC0D4
:103650008D919C9111974817590708F4AC017D0191
:1036600012960D90BC91A02DB3CF8091B609909188
:10367000B70988159905E1F446175707C8F48091F2
:10368000000290910102009741F48DB79EB74091DE
:10369000040250910502841B950BE817F907C8F442
:1036A000F093B709E093B609F901718360830FC005
:1036B000CB010E9464197C01009759F0A801BE015A
:1036C0000E947F1BCE010E94F919C70104C0CE01E0
:1036D00002C080E090E0DF91CF911F910F91FF90A9
:1036E000EF90DF90CF90BF90AF909F908F907F90A2
:1036F0006F90089581E090E0F8940C94EA1BFB0130
:10370000DC0102C001900D9241505040D8F708955D
:10371000FB01DC0101900D920020E1F70895FB010F
:10372000DC0105900D920020E1F70895FC01059061
:103730000020E9F7809590958E0F9F1F08954532E0
:10374000510520F4423010F00C94AA1BFB011082AA
:10375000CB010895BB274A3031F4992322F4BDE20E
:10376000909581959F4F0C94C11B4532510520F4D3
:10377000423010F00C94C01BFB011082CB01089565
:10378000BB27FB015527AA27880F991FAA1FA4173B
:1037900010F0A41B83955051B9F7A05DAA3308F02F
:1037A000A95DA193009779F7B111B1931192CB0163
:1037B0000C94DA1BDC01FC01672F71917723E1F790
:1037C000329704C07C916D9370836291AE17BF07EE
:1037D000C8F3089511E0C9E9D1E000E006C0802FE8
:1037E000FE010E9448192196011DCA39D10780E0C7
:0837F0000807A9F7F894FFCFC8
:1037F8000000BA0980001F1C1F1E1F1E1F1F1E1F4E
:103808001E1F000000003F05CE01FD0186052E02A7
:103818000C022002706F7274496E697400436F69FC
:103828006E4163632E20496E697469616C00426958
:103838006C6C4163632E20496E697469616C002069
:10384800234142003E3E2023313A726561645F6540
:1038580076656E745F74696D656F75745F636E7499
:10386800203D20003E3E2023323A726561645F6548
:1038780076656E745F74696D656F75745F636E7479
:10388800203D200062696C6C416363203E3E2056F7
:1038980065726966792032304254482E0062696C3C
:1038A8006C416363203E3E205265636569766564BA
:1038B800202D203230424148542E0062696C6C4100
:1038C8006363203E3E205665726966792035304232
:1038D80054482E0062696C6C416363203E3E20525E
:1038E80065636569766564202D203530424148540A
:1038F8002E0062696C6C416363203E3E20566572FF
:10390800696679203130304254482E0062696C6C07
:10391800416363203E3E2052656365697665642095
:103928002D20313030424148542E0062696C6C4180
:103938006363203E3E2056657269667920353030D3
:103948004254482E0062696C6C416363203E3E20FD
:103958005265636569766564202D203530304241B3
:1039680048542E0062696C6C416363203E3E2056C9
:10397800657269667920313030304254482E0062D1
:10398800696C6C416363203E3E20526563656976CD
:103998006564202D2031303030424148542E006279
:1039A800696C6C416363203E3E204368616E6E65BE
:1039B8006C206E6F7420666F756E640D0A00676503
:1039C8007420436F696E2076616C7565203D200018
:1039D800546F74616C20436F696E2076616C7565F5
:1039E800203D200043616E277420636F6E6E65630F
:1039F8007420746F20436F696E206163632E0043E7
:103A08006F696E206163632E204572726F72204366
:103A18006F6465203D200042696C6C207665726990
:103A280066792076616C7565203D2000726F75742B
:103A38006542696C6C202D204163636570740D0AC2
:103A48000042696C6C2072656365697665642076EE
:103A5800616C7565203D2000546F74616C2042696B
:103A68006C6C2076616C7565203D200043616E2783
:103A78007420636F6E6E65637420746F2042696C86
:103A88006C206163632E0042696C6C206163632E55
:103A9800204572726F7220436F6465203D20006C70
:103AA8006F670042696C6C4163632E20436F6E6ED2
:103AB800656374696F6E203E3E204F4B0042696C0F
:103AC8006C4163632E20537461747573203E3E20ED
:103AD80045300042696C6C4163632E2053746174F5
:103AE8007573203E3E20450042696C6C4163632E2D
:103AF80020436F6E6E656374696F6E203E3E20458D
:103B080072726F720042696C6C4163632E20537449
:103B180061747573203E3E204530300042696C6CFC
:103B28004163632E20537461747573203E3E2052A6
:103B380065616479005265736574204465766963CC
:103B4800652E2E2E004E6F742041434B20726573F4
:103B5800706F7365004E6F742064617461205265E4
:103B68007065617400436F696E4163632E20436F13
:103B78006E6E656374696F6E203E3E204F4B004346
:103B88006F696E4163632E20537461747573203EB0
:103B98003E20453000436F696E4163632E205374A5
:103BA80061747573203E3E204500436F696E416322
:103BB800632E20436F6E6E656374696F6E203E3EA0
:103BC800204572726F7200436F696E4163632E20E5
:103BD800537461747573203E3E2045303000436F46
:103BE800696E4163632E20537461747573203E3E81
:103BF8002052656164790053657420436F696E20B3
:103C08004163632E20506F776572203E3E204849FD
:103C180047480053657420436F696E204163632EE3
:103C280020506F776572203E3E204C4F57005365F9
:103C3800742042696C6C204163632E20506F776555
:103C480072203E3E20484947480053657420426927
:103C58006C6C204163632E20506F776572203E3E66
:103C6800204C4F5700203A20004D41494E00212159
:103C78005265706561742052656365697665204494
:103C8800617461202D2054696D656F757421210060
:103C980023636C72526570656174203E3E20002378
:103CA80041434B44617461203E3E2000212152650E
:103CB80063656976652044617461202D20496E63CF
:103CC8006F727265637421210D0A007265636569FC
:103CD8007665467561756C7444617461203E3E205A
:103CE8000053656C6620636865636B202D2D3E204C
:103CF8004572726F7221210D0A00506C732C20439B
:103D08006865636B4465766963652E0D0A00212139
:103D180052656365697665204576656E74204461F1
:103D28007461202D2054696D656F757421210D0A09
:103D380000536574556E496E68696269740D0A00AE
:103D48005365744D6173746572202D204F4E0D0AB2
:103D5800005365744D6173746572202D204F46467B
:103D68000D0A005265636569766564202D2031422D
:103D780054482E0D0A005265636569766564202DE6
:103D880020324254482E0D0A0052656365697665F3
:103D980064202D20354254482E0D0A005265636573
:103DA80069766564202D2031304254482E0D0A0072
:00000001FF
