:1000000056C1000085C1000083C1000081C100000D
:100010007FC100007DC100007BC1000079C10000EC
:1000200077C1000075C1000073C1000071C10000FC
:100030006FC100006DC100006BC1000069C100000C
:1000400067C1000065C1000063C1000061C100001C
:1000500010C600005DC100005BC100000C94671277
:1000600057C100000C94A8150C94DE1551C1000076
:100070004FC100004DC100004BC1000049C100004C
:1000800047C1000045C1000043C1000041C100005C
:100090003FC100003DC100003BC1000039C100006C
:1000A00037C1000035C1000033C1000031C100007C
:1000B0002FC100002DC100002BC1000029C100008C
:1000C00027C1000025C1000023C1000021C100009C
:1000D0001FC100001DC100000C9453160C9489161A
:1000E00017C10000240F240F360F360F360F480FAC
:1000F000480F5A0F16100610E60F26102610F60F9E
:10010000F60F0610161026109113941383138713FD
:100110008D13CB1398139C13A213A613AA13B01319
:10012000B413B813CB13BE13C213C6132323204139
:10013000726475696E6F436354616C6B4C696220C5
:100140002D204578616D706C65203E3E20537461B2
:1001500072742E2E2E002D2D2D2D2D2D2D2D2D2D6D
:100160002D2D2D2D2D2D2D2D2D2D2D2D2D2D2D2DBF
:100170002D2D2D2D2D2D2D2D2D2D2D2D2D2D2D00DC
:10018000434354414C4B2D4445564943450043435A
:1001900054414C4B003000003A003A0000000A0B7A
:1001A00002090C0D0E080703040100000000000006
:1001B000000000000000000000000000000000003F
:1001C00000000000000000001211100000000000FC
:1001D000000000000000000000000000000000001F
:1001E000000001021020200808102040102040804C
:1001F00002010201080402010102040810204080EB
:100200008040201008040201800402018040201078
:1002100008040201080402010102040810204080C1
:10022000010204081020408005050505070508089F
:100230000808020202020A0A080804040404010170
:100240000101010101010303030303030303040785
:1002500007070C0C0C0C0C0C0C0C0202020206061C
:100260000606060606060B0B0B0B0B0B0B0B000012
:100270002200250028002B002E003100340002014E
:100280000000050108010B010000210024002700E7
:100290002A002D0030003300010100000401070195
:1002A0000A014304B30A1016BB166604B60A1124E9
:1002B0001FBECFEFD1E2DEBFCDBF00E00CBF16E026
:1002C000A0E0B2E0EEE9F8E300E00BBF02C0079067
:1002D0000D92A837B107D9F728E0A8E7B6E001C02A
:1002E0001D92A137B207E1F712E0CAEAD2E000E0BE
:1002F00006C022970109FE010BBF0E94C819C23A2D
:10030000D10780E00807A9F70E94FF160C943E1C55
:1003100077CE90918A0640918B0630918C06209181
:100320008D0680918506890F50918606851B8093E6
:10033000850690938606409387063093880620931F
:1003400089068A3030F110928506909184069F5F6D
:100350009093840681E0809381069A30D0F01092C9
:100360008406909183069F5F909383068093800616
:10037000953078F010928306909182069F5F90935B
:10038000820680937F06923020F01092820680933E
:100390007E0608958EE896E0BED68EE896E00C9430
:1003A0005C0ACF92DF92EF92FF920F931F9380919E
:1003B000810681111092810680918006882319F0B0
:1003C000E9DF1092800680917F06811110927F06EE
:1003D00080917E06811110927E060E94B112609378
:1003E0008A0670938B0680938C0690938D060091FD
:1003F00086061091870620918806309189066B0148
:100400007C01C01AD10AE20AF30A42E0C416D10400
:10041000E104F10438F01F910F91FF90EF90DF900D
:10042000CF9077CF601771078207930740F46093EE
:1004300086067093870680938806909389061F919D
:100440000F91FF90EF90DF90CF900895CF93DF93BF
:1004500000D000D0CDB7DEB7BC01CE0101960E941E
:100460004F18BE016F5F7F4F88EA96E00E94D81157
:10047000CE0101960E946C1726960FB6F894DEBF47
:100480000FBECDBFDF91CF910895CF93DF9300D002
:1004900000D0CDB7DEB788EA96E00E94CD1166E5C0
:1004A00071E0CE0101960E94EB18CE010196CEDFDD
:1004B000CE0101960E946C176CE271E0CE010196AC
:1004C0000E94EB18CE010196C1DFCE0101960E9479
:1004D0006C1760ED77E08EE896E076D468E08EE801
:1004E00096E0DBD764EF71E080E090E00E94E012DC
:1004F00069E08EE896E000D664EF71E080E090E07D
:100500000E94E01261E08EE896E081D760ED77E02E
:1005100080E090E00E94E01261E08EE896E0A3D5D2
:1005200064EF71E080E090E00E94E0128EE896E0D7
:100530006DD58EE896E03ED726960FB6F894DEBFCE
:100540000FBECDBFDF91CF910895CF93DF93CDB78D
:10055000DEB762970FB6F894DEBF0FBECDBF8EE850
:1005600096E029D6181619060CF05BC020917A0681
:1005700030917B06280F391F30937B0620937A0633
:100580004AE0BC01CE010D960E9478186AE072E044
:10059000CE0107960E94D317BE01635F7F4FCE0145
:1005A00007960E944F19BC01CE0101960E944F1878
:1005B000CE0101964BDFCE0101960E946C17CE0151
:1005C00007960E946C17CE010D960E946C176091E1
:1005D0007A0670917B064AE0CE010D960E94A21821
:1005E0006CE172E0CE0107960E94D317BE01635FF3
:1005F0007F4FCE0107960E944F19BC01CE01019694
:100600000E944F18CE01019621DFCE0101960E9473
:100610006C17CE0107960E946C17CE010D960E94B2
:100620006C1762960FB6F894DEBF0FBECDBFDF9198
:10063000CF910895CF93DF93CDB7DEB762970FB612
:10064000F894DEBF0FBECDBF8EE896E083D71816B4
:1006500019060CF05BC02091780630917906280FBE
:10066000391F30937906209378064AE0BC01CE0109
:100670000D960E94781860E372E0CE0107960E9402
:10068000D317BE01635F7F4FCE0107960E944F19BB
:10069000BC01CE0101960E944F18CE010196D6DE14
:1006A000CE0101960E946C17CE0107960E946C172E
:1006B000CE010D960E946C176091780670917906B4
:1006C0004AE0CE010D960E94A21862E472E0CE01CB
:1006D00007960E94D317BE01635F7F4FCE01079636
:1006E0000E944F19BC01CE0101960E944F18CE0105
:1006F0000196ACDECE0101960E946C17CE010796E2
:100700000E946C17CE010D960E946C1762960FB670
:10071000F894DEBF0FBECDBFDF91CF9108951F9338
:10072000CF93DF93CDB7DEB762970FB6F894DEBFF5
:100730000FBECDBF36DE09DF8EE896E01AD58EE813
:1007400096E03FD5882309F443C08EE896E039D57A
:10075000182F80917D061817C1F11F3F61F466E5DF
:1007600072E0CE0101960E94D317CE0101966EDE93
:10077000CE01019628C04AE0612F772767FD70956A
:10078000CE010D960E94781861E772E0CE010796BF
:100790000E94D317BE01635F7F4FCE0107960E9470
:1007A0004F19BC01CE0101960E944F18CE0101964F
:1007B0004DDECE0101960E946C17CE0107960E9475
:1007C0006C17CE010D960E946C1710937D0602C027
:1007D00010927D062FDF8EE896E09CD68EE896E09C
:1007E000BFD6882309F443C08EE896E0B9D6182F07
:1007F00080917C061817C1F11F3F61F469E872E02F
:10080000CE0101960E94D317CE0101961FDECE01C4
:10081000019628C04AE0612F772767FD7095CE01C9
:100820000D960E94781864EA72E0CE0107960E9445
:10083000D317BE01635F7F4FCE0107960E944F1909
:10084000BC01CE0101960E944F18CE010196FEDD3B
:10085000CE0101960E946C17CE0107960E946C177C
:10086000CE010D960E946C1710937C0602C0109268
:100870007C0662960FB6F894DEBF0FBECDBFDF9147
:10088000CF911F910895CF93DF9300D000D0CDB7C3
:10089000DEB76CEB72E0CE0101960E94D317BE0169
:1008A0006F5F7F4F88EA96E00E94C310CE010196E9
:1008B0000E946C178EE896E007D226960FB6F89441
:1008C000DEBF0FBECDBFDF91CF9108958EE896E0D9
:1008D00045D288EA96E00C94EF106F927F928F9247
:1008E0009F92AF92BF92CF92DF92EF92FF920F93BF
:1008F0001F93CF93DF93EA012CE3C22ED12CE12C7E
:10090000F12CA70196010E94A0196883CA01B901C0
:10091000A70196010E94A0196983CA01B90128E1C3
:1009200030E040E050E00E94A01949015A016A837A
:10093000CA01B9016C5F7F4F8F4F9F4F27E030E0B6
:1009400040E050E00E94A0196F5F6B8300E010E070
:10095000980140E054E6652E712C60E9C62EDD2436
:10096000D394E42FF0E0EE54F84F7F0183E0E822C7
:10097000FF24E114F10489F4CF01B3010E948D1921
:10098000892B29F08EE691E0A0E0B0E00AC0CF010B
:10099000B6010E948D19892BA9F38DE691E0A0E0A4
:1009A000B0E0080F191F2A1F3B1FD901C801AA2751
:1009B000BB2788169906AA06BB0610F04F5FD1CF59
:1009C0004E83E114F10499F4CF0164E670E00E94D3
:1009D0008D19892B29F08EE691E0A0E0B0E00BC0E4
:1009E000CF0160E971E00E948D19892BA1F38DE69A
:1009F00091E0A0E0B0E0081B190B2A0B3B0B801A1A
:100A0000910AA20AB30ACF0164E670E00E948D1930
:100A10009C01CF0160E971E00E948D19E1ECF2E0E8
:100A2000A0E0A13059F4E114F10451F4211531058D
:100A300011F04DE106C00097E1F302C0408101C012
:100A40004CE150E060E070E084169506A606B7061B
:100A500040F0841A950AA60AB70AAF5F3196AC3007
:100A600001F7AF5FAD8383948C82DF91CF911F91AB
:100A70000F91FF90EF90DF90CF90BF90AF909F903D
:100A80008F907F906F900895CF92DF92EF92FF92B8
:100A90006B017C018091CC069091CD06A091CE0691
:100AA000B091CF06C816D906EA06FB0669F040EDFC
:100AB00056E0C701B60111DFC092CC06D092CD0638
:100AC000E092CE06F092CF06FF90EF90DF90CF90AD
:100AD0000895DADF8091D20690E00895D5DF809105
:100AE000D10690E00895D0DF8091D00690E008957F
:100AF0000F931F936093C8067093C9068093CA062C
:100B00009093CB06009106021091070220910802F3
:100B100030910902060F171F281F391F0093C006C6
:100B20001093C1062093C2063093C30682E090E082
:100B30009093BF068093BE060E94B1126093C406D4
:100B40007093C5068093C6069093C7061F910F91B8
:100B50000895CF92DF92EF92FF920F931F930E941E
:100B6000B112C090C406D090C506E090C606F090C1
:100B7000C7066C197D098E099F090091C80610915E
:100B8000C9062091CA063091CB06683E73408105A4
:100B90009105D8F00F5F1F4F2F4F3F4F0093C806AE
:100BA0001093C9062093CA063093CB0648EEC40EB4
:100BB00043E0D41EE11CF11CC092C406D092C506CD
:100BC000E092C606F092C706CACF8091C006909107
:100BD000C106A091C206B091C306081719072A07DB
:100BE0003B07C0F1E091BC06F091BD06309791F152
:100BF0001995611571058105910511F079DF2AC0FC
:100C00008091060290910702A0910802B09109021A
:100C10004091C8065091C9066091CA067091CB06F2
:100C2000840F951FA61FB71F8093C0069093C1061F
:100C3000A093C206B093C30681E090E02091BE0667
:100C40003091BF06232B11F480E090E09093BF0613
:100C50008093BE066091C8067091C9068091CA064D
:100C60009091CB061F910F91FF90EF90DF90CF9066
:100C700008951F920F920FB60F9211240BB60F9288
:100C80002F933F934F935F936F937F938F939F9394
:100C9000AF93BF93EF93FF93E091DB06F091DC06F7
:100CA0001995FF91EF91BF91AF919F918F917F9196
:100CB0006F915F914F913F912F910F900BBE0F90CD
:100CC0000FBE0F901F901895EF92FF920F931F93F6
:100CD000CF93DF9300D000D0CDB7DEB78C01029662
:100CE0000E942512C80106960E942512F80112865C
:100CF00013861586148617861686108A8EEF818BCA
:100D0000128A838B89E0848B88E0858B168A178A08
:100D1000108E118E60E871E0CE0101960E94EB18F2
:100D200084E190E00E940B177C01BE016F5F7F4F52
:100D30000E94C310F801F182E082CE0101960E9468
:100D40006C1726960FB6F894DEBF0FBECDBFDF91AD
:100D5000CF911F910F91FF90EF900895CF93DF9364
:100D6000FC01C081D181209741F0CE010E94EF109B
:100D7000CE01DF91CF910C940C17DF91CF910895A4
:100D80000F931F93CF93DF9300D000D0CDB7DEB782
:100D90008C01CE0101960E944F18BE016F5F7F4FFC
:100DA000F801808191810E94D811CE0101960E94A4
:100DB0006C1726960FB6F894DEBF0FBECDBFDF913D
:100DC000CF911F910F910895EF92FF920F931F9370
:100DD000CF93DF9300D000D0CDB7DEB77C018B017D
:100DE0006DEC72E0CE0101960E94D317BE016F5FD9
:100DF0007F4FC701C5DFCE0101960E946C17B80175
:100E00008DED96E06ED426960FB6F894DEBF0FBE39
:100E1000CDBFDF91CF911F910F91FF90EF9008957B
:100E2000CF93DF93EC01888981110CC041E062E02F
:100E300070E08DED96E067D7882319F081E0888F08
:100E400001C0188EDF91CF9108950F931F93CF9318
:100E5000DF93CDB7DEB762970FB6F894DEBF0FBE53
:100E6000CDBF8C0162E070E08DED96E0B2D68823B4
:100E700009F47AC0F80180898F3F79F466ED72E059
:100E8000CE0101960E94D317BE016F5F7F4FC8014C
:100E900077DFCE0101960E946C1768EC70E080E06D
:100EA00090E00E94E01262E070E08DED96E0AFD637
:100EB00068EC70E080E090E00E94E0128DED96E03A
:100EC000F7D5F801808B811108C062E070E08DEDEC
:100ED00096E0BFD6C801A4DF6EC0F801918918164C
:100EE0000CF03FC08A307CF4891709F464C0682F85
:100EF000772767FD70954AE0CE010D960E9478181D
:100F000060EF72E00EC0891709F455C0682F77278B
:100F100067FD70954AE0CE010D960E94781866E054
:100F200073E0CE0107960E94D317BE01635F7F4F27
:100F3000CE0107960E944F19BC01CE0101960E9476
:100F40004F18BE016F5F7F4FC8011ADFCE010196B7
:100F50000E946C17CE0107960E946C17CE010D9669
:100F600025C0891307C027C08FEFF801808B8189C6
:100F70008F3F09F16BE173E0CE0101960E94D31718
:100F8000BE016F5F7F4FC801FBDECE0101960E945C
:100F90006C1768E373E0CE0101960E94D317BE017F
:100FA0006F5F7F4FC801ECDECE0101960E946C1787
:100FB000F8018089818BF801808981111BC08189AA
:100FC000882391F06FE473E0CE0101960E94D3175D
:100FD000BE016F5F7F4FC801D3DECE0101960E9434
:100FE0006C17F8018089818BC80102960E942B1230
:100FF00081E001C080E062960FB6F894DEBF0FBEBC
:10100000CDBFDF91CF911F910F9108950F931F9343
:10101000CF93DF9300D000D0CDB7DEB78C0168E668
:1010200073E0CE0101960E94D317BE016F5F7F4F20
:10103000C801A6DECE0101960E946C178FEFF80161
:10104000808BC80102DF882319F091E0F801908FAE
:1010500026960FB6F894DEBF0FBECDBFDF91CF91BD
:101060001F910F910895FF920F931F93CF93DF93DA
:1010700000D000D0CDB7DEB78C01F62EFC01828502
:101080006817D9F0662319F069E773E002C065E9D3
:1010900073E0CE0101960E94D317BE016F5F7F4FB0
:1010A000C8016EDECE0101960E946C176F2DF8010B
:1010B00084890E940514F801F2860E5F1F4FC80153
:1010C0000E942B1244EF51E060E070E0C8010E94E2
:1010D0003612811105C08DED96E00E94A710F2CF67
:1010E00026960FB6F894DEBF0FBECDBFDF91CF912D
:1010F0001F910F91FF900895CF93DF93EC01862FFE
:101100006C8B61E00E94CC1381E08A8760E0CE01A5
:10111000DF91CF91A8CFCF93DF93EC018889811124
:1011200025C0888D882311F18E898F5F8E8B823048
:10113000E8F062E070E08DED96E03AD6882391F019
:101140008DED96E0D6D68F3F49F02C853D85280F52
:10115000311D87FD3A953D872C8702C0CE0175DE93
:101160001E8A04C0CE01DF91CF916FCEDF91CF9167
:1011700008950F931F93CF93DF93EC018889882301
:1011800091F08E010E5F1F4F44EF51E060E070E080
:10119000C8010E943612882341F0CE0156DEC801F4
:1011A0000E942B1202C081E001C080E0DF91CF914C
:1011B0001F910F910895FC018485958515861486ED
:1011C0000895FC0180890895CF93DF93EC018A890B
:1011D00081110CC041E068E270E08DED96E093D59E
:1011E000882319F081E0898F01C0198EDF91CF919A
:1011F00008950F931F93CF93DF93CDB7DEB7629718
:101200000FB6F894DEBF0FBECDBF8C0168E270E070
:101210008DED96E0BED4882309F47AC0F801828966
:101220008F3F79F460EB73E0CE0101960E94D317F3
:10123000BE016F5F7F4FC801A3DDCE0101960E9402
:101240006C1768EC70E080E090E00E94E01268E2C9
:1012500070E08DED96E0DBD468EC70E080E090E02B
:101260000E94E0128DED96E023D4F801828B81116B
:1012700008C068E270E08DED96E0EBD4C801A4DF11
:101280006EC0F801938918160CF03FC08A307CF4C8
:10129000891709F464C0682F772767FD70954AE0C5
:1012A000CE010D960E9478186AEC73E00EC0891783
:1012B00009F455C0682F772767FD70954AE0CE0185
:1012C0000D960E94781860EE73E0CE0107960E949A
:1012D000D317BE01635F7F4FCE0107960E944F195F
:1012E000BC01CE0101960E944F18BE016F5F7F4F77
:1012F000C80146DDCE0101960E946C17CE0107960B
:101300000E946C17CE010D9625C0891307C027C017
:101310008FEFF801828B83898F3F09F165EF73E0CE
:10132000CE0101960E94D317BE016F5F7F4FC801A7
:1013300027DDCE0101960E946C1762E174E0CE01B8
:1013400001960E94D317BE016F5F7F4FC80118DD61
:10135000CE0101960E946C17F8018289838BF801F7
:10136000828981111BC08389882391F069E274E02E
:10137000CE0101960E94D317BE016F5F7F4FC80157
:10138000FFDCCE0101960E946C17F8018289838BE5
:10139000C80106960E942B1281E001C080E062968F
:1013A0000FB6F894DEBF0FBECDBFDF91CF911F9176
:1013B0000F9108950F931F93CF93DF9300D000D028
:1013C000CDB7DEB78C0162E474E0CE0101960E94D5
:1013D000D317BE016F5F7F4FC801D2DCCE010196EB
:1013E0000E946C178FEFF801828BC80102DF8823FF
:1013F00019F091E0F801918F26960FB6F894DEBFB0
:101400000FBECDBFDF91CF911F910F910895FF9235
:101410000F931F93CF93DF9300D000D0CDB7DEB7EB
:101420008C01F62EFC0183856817D9F0662319F02C
:1014300063E574E002C06FE674E0CE0101960E949D
:10144000D317BE016F5F7F4FC8019ADCCE010196B2
:101450000E946C176F2DF80185890E940514F80110
:10146000F3860A5F1F4FC801F6D744EF51E060E0F2
:1014700070E0C801FBD7811104C08DED96E067D6FE
:10148000F4CF26960FB6F894DEBF0FBECDBFDF9126
:10149000CF911F910F91FF900895CF93DF93EC01AF
:1014A000862F6D8B61E00E94CC1381E08B8760E01A
:1014B000CE01DF91CF91ABCFCF93DF93EC018A893F
:1014C000811125C0898D882311F18F898F5F8F8BC2
:1014D0008430E8F068E270E08DED96E069D488230E
:1014E00091F08DED96E0DCD58F3F49F02E853F855C
:1014F000280F311D87FD3A953F872E8702C0CE0108
:1015000078DE1F8A04C0CE01DF91CF9172CEDF91C9
:10151000CF9108950F931F93CF93DF93EC018A89A6
:10152000882381F08E010A5F1F4F44EF51E060E095
:1015300070E0C8019BD7882339F0CE015ADEC8017C
:101540008AD702C081E001C080E0DF91CF911F9176
:101550000F910895FC018685978517861686089554
:10156000FC01828908958DED96E003C08DED96E033
:1015700041C0EF92FF920F931F93CF93DF9300D060
:1015800000D0CDB7DEB78C01FC0110861186128623
:101590001386E95BFF4F10823196108231961082DC
:1015A0003196108231961082319681E080836EE808
:1015B00071E0CE0101960E94EB1884E190E00E9458
:1015C0000B177C01BE016F5F7F4FDDD5F801F18203
:1015D000E082CE0101960E946C1726960FB6F89411
:1015E000DEBF0FBECDBFDF91CF911F910F91FF9056
:1015F000EF9008950F931F93CF93DF938C01FC011D
:10160000C081D181209729F0CE01E9D5CE010E9479
:101610000C17F80182819381DF91CF911F910F9177
:101620000C940C170F931F93CF93DF9300D000D02F
:10163000CDB7DEB78C01CE0101960E944F18BE01D6
:101640006F5F7F4FF80180819181B2D6CE01019604
:101650000E946C1726960FB6F894DEBF0FBECDBF62
:10166000DF91CF911F910F910895CF93DF93EC01FC
:1016700078D7688779878A879B87DF91CF9108958C
:10168000CF92DF92EF92FF920F931F93CF93DF934E
:10169000EC016A017B0165D7088519852A853B85A0
:1016A000601771078207930710F4CE01DEDF59D768
:1016B000088519852A853B85601B710B820B930B6E
:1016C00021E06C157D058E059F0508F420E0822F32
:1016D000DF91CF911F910F91FF90EF90DF90CF900E
:1016E0000895CF93DF93EC01CB017B836A8340E8BD
:1016F00055E260E070E04C835D836E837F8326E07B
:101700000E9448158A819B81DC01ED91FC91028445
:10171000F385E02DDF91CF911994DF92EF92FF9244
:101720000F931F93CF93DF93CDB7DEB7C058D10986
:101730000FB6F894DEBF0FBECDBF8C01DC011C9646
:101740008C911C9789831E96EC901E97EA821F96B7
:101750008C911F978B8351968C918C83FE013596CB
:1017600080E090E0F12C8E159F0544F4D801A80F7D
:10177000B91F53962C9121930196F5CFB4E0EB0E4F
:10178000F11CE1E0F0E0EC0FFD1FEE0DFF1DD801B4
:101790005B968C918083D12C2D2D30E0E216F306E0
:1017A0009CF0F80182819381DC01ED91FC91A1E034
:1017B000B0E0AC0FBD1FA20FB31F0190F081E02D70
:1017C0006C911995D394E8CFC058DF4F0FB6F894B9
:1017D000DEBF0FBECDBFDF91CF911F910F91FF9064
:1017E000EF90DF900895FF920F931F93CF93DF93B5
:1017F00000D000D0CDB7DEB78C01F62E36DFFF204B
:10180000A1F1D80112968D919C911397DC01ED9175
:10181000FC910480F581E02D1995892B69F0F80180
:1018200082819381DC01ED91FC910680F781E02DAE
:101830001995FA94C80119DF48EC50E060E070E0B7
:10184000C8011EDF8823D9F26AE874E0CE01019650
:101850000E94D317BE016F5F7F4FC801E3DECE0148
:1018600001960E946C1780E001C081E026960FB6B9
:10187000F894DEBF0FBECDBFDF91CF911F910F91C6
:10188000FF9008950F931F93CF93DF9300D000D064
:10189000CDB7DEB78C0180E090E020E0F801E80FE2
:1018A000F91F348D230F019685309105B9F7F801A2
:1018B000868D883219F0868D823041F4F801878D4B
:1018C000811104C0211102C081E010C06CEA74E0F3
:1018D000CE0101960E94D317BE016F5F7F4FC801F2
:1018E000A1DECE0101960E946C1780E026960FB60D
:1018F000F894DEBF0FBECDBFDF91CF911F910F9146
:1019000008950F931F93CF93DF93EC01AEDE00E0B9
:1019100010E08A819B81DC01ED91FC910480F581CE
:10192000E02D1995892B19F00530110589F448EC43
:1019300050E060E070E0CE01A3DE81111BC00530F5
:10194000110539F7CE01DF91CF911F910F919ACFF9
:101950008A819B81DC01ED91FC910680F781E02D6D
:101960001995FE01E00FF11F848F0F5F1F4FCE010D
:101970007CDECFCF80E0DF91CF911F910F91089552
:10198000EF92FF920F931F93CF93DF9300D000D07D
:10199000CDB7DEB78C0180E090E020E0F801E80FE1
:1019A000F91F31A1230F019686309105B9F7F8018F
:1019B000868DA801455B5F4F7A01883219F0868DCC
:1019C000823041F4211106C0F80185A1F70180831E
:1019D00081E022C06BEC74E0CE0101960E94D31727
:1019E000BE016F5F7F4FC8011DDECE0101960E94D0
:1019F0006C1764EE74E0CE0101960E94D317BE010D
:101A00006F5F7F4FC8010EDECE0101960E946C17FA
:101A10008FEFF701808380E026960FB6F894DEBF43
:101A20000FBECDBFDF91CF911F910F91FF90EF902F
:101A300008950F931F93CF93DF93EC0116DE00E020
:101A400010E08A819B81DC01ED91FC910480F5819D
:101A5000E02D1995892B19F00630110589F448EC11
:101A600050E060E070E0CE010BDE81111BC006305B
:101A7000110539F7CE01DF91CF911F910F9180CFE2
:101A80008A819B81DC01ED91FC910680F781E02D3C
:101A90001995FE01E00FF11F81A30F5F1F4FCE01CB
:101AA000E4DDCFCF80E0DF91CF911F910F910895BA
:101AB000855B9F4FFC0180810895CF92DF92EF926A
:101AC000FF920F931F93CF93DF9300D000D0CDB739
:101AD000DEB78C016B01C9DDE12CF12CD801129627
:101AE0008D919C911397DC01ED91FC910480F5811F
:101AF000E02D1995892BF9F0B0E1EB16F104DCF437
:101B0000D80112968D919C911397DC01ED91FC9177
:101B10000680F781E02D1995B2E0CB16D10429F4A7
:101B2000F801EE0DFF1D87A387AB8FEFE81AF80AC7
:101B3000C8019BDDD3CF48EC50E060E070E0C80105
:101B40009FDD882389F068EF74E0CE0101960E9442
:101B5000D317BE016F5F7F4FC80164DDCE010196D0
:101B60000E946C1780E006C0E0E1EE16F1040CF470
:101B7000B5CF81E026960FB6F894DEBF0FBECDBF7D
:101B8000DF91CF911F910F91FF90EF90DF90CF9059
:101B90000895CF93DF93EC016C877D871E8681E0EB
:101BA00090E0988B8F878EEF90E09A8B898B6150B5
:101BB00061956B8FCE01B1DD65E0CE0114DE882327
:101BC00021F0CE01DF91CF919CCE80E0DF91CF91CB
:101BD0000895CF93DF93EC016C877D871E8681E0AB
:101BE00090E0988B8F879A8B898B6E5F61956B8F56
:101BF000CE0193DD65E0CE01F6DD882321F0CE0134
:101C0000DF91CF917ECE80E0DF91CF910895CF9389
:101C1000DF93EC016C877D871E8681E090E0988BD6
:101C20008F8788EE90E09A8B898B675161956B8FD7
:101C3000CE0173DD65E0CE01D6DD882329F0CE012B
:101C4000F8DE91E0811101C090E0892FDF91CF9102
:101C50000895EF92FF920F931F93CF93DF9300D0DD
:101C600000D0CDB7DEB78C017B016BE175E0CE0112
:101C700001960E94D317BE016F5F7F4FC801D2DC6F
:101C8000CE0101960E946C17F801F586E48682E089
:101C9000868781E090E0908B878787EE90E0928B3B
:101CA000818BF2E0EF16F10429F480E8F801838BD0
:101CB0008FEF08C0F8E2EF16F10429F48FEFF80176
:101CC000838B83E0848BF80183899489890F865103
:101CD0008E0D8195838FC80120DD67E0C80183DD0B
:101CE000882319F0C8010DDE01C080E026960FB6EA
:101CF000F894DEBF0FBECDBFDF91CF911F910F9142
:101D0000FF90EF900895DF92EF92FF920F931F9351
:101D1000CF93DF9300D000D0CDB7DEB78C01F62E85
:101D2000D72EE42E442319F06AE275E002C06BE37B
:101D300075E0CE0101960E94D317BE016F5F7F4F01
:101D4000C80170DCCE0101960E946C17F801F48680
:101D5000D58621E0268781E090E0908B878784EE0E
:101D600090E0928B818BEE2011F0238B02C0F80162
:101D7000138AF80183898A518F0D8195838FC80159
:101D8000CCDC66E0C8012FDD882319F0C801B9DD7D
:101D900001C080E026960FB6F894DEBF0FBECDBF1F
:101DA000DF91CF911F910F91FF90EF90DF900895F9
:101DB0000F931F93CF93DF93EC018B017D876C878B
:101DC0001E8681E090E0988B8F876230710519F450
:101DD00085EE90E005C06832710521F48FE990E04E
:101DE0009A8B898B89898095801B8B8FCE0195DC9E
:101DF00081E0FE01E45BFF4F808365E0CE01F3DC10
:101E0000882339F0B801CE01DF91CF911F910F9156
:101E100054CE80E0DF91CF911F910F9108950F93E1
:101E20001F93CF93DF9300D000D0CDB7DEB78C01E6
:101E3000462F50E0FA013897E830F10508F04CC021
:101E4000EE58FF4F0C94C2196DE475E0CE01019677
:101E50000E94D317BE016F5F7F4FC801E3DBCE0145
:101E600001960E946C1781E090E038C060E675E052
:101E7000CE0101960E94D317BE016F5F7F4FC8014C
:101E8000D1DBCE0101960E946C1782E090E026C063
:101E900063E775E0CE0101960E94D317BE016F5F24
:101EA0007F4FC801BFDBCE0101960E946C1785E011
:101EB00090E014C066E875E0CE0101960E94D31749
:101EC000BE016F5F7F4FC801ADDBCE0101960E945E
:101ED0006C178AE090E002C080E090E026960FB692
:101EE000F894DEBF0FBECDBFDF91CF911F910F9150
:101EF0000895CF92DF92EF92FF920F931F93CF93AB
:101F0000DF93EC018BA57E0197E4E90EF11CF7014C
:101F1000208190E0821B91090297B4F0DBA4D21AD1
:101F2000CD2CCC0C00E010E0CA94CA94DD2061F105
:101F300085E08C0DFE01E80FF11D67A1CE016FDF7A
:101F4000080F191FDA94F0CF8CA5882341F08BA5D8
:101F50002817C1F06CA5CE0162DF8C0115C08BA5DE
:101F6000281310C08DA5FE01E75BFF4F8E3049F4AA
:101F700080818F5F8083853128F010828FEF9FEF03
:101F800007C0108200E010E08BA5F7018083C80134
:101F9000DF91CF911F910F91FF90EF90DF90CF9045
:101FA00008950F931F93CF93DF9300D000D0CDB748
:101FB000DEB78C01462F50E0FA013197EA30F10587
:101FC00008F054C0E658FF4F0C94C21966ED75E056
:101FD000CE010196E8D7BE016F5F7F4FC80122DBBB
:101FE000CE01019679D784E690E04FC064E176E0B7
:101FF000CE010196D8D7BE016F5F7F4FC80112DBBB
:10200000CE01019669D788EE93E03FC068EB75E09A
:10201000CE010196C8D7BE016F5F7F4FC80102DBBA
:10202000CE01019659D782E390E02FC06AE975E0AE
:10203000CE010196B8D7BE016F5F7F4FC801F2DABB
:10204000CE01019649D784E190E01FC065EF75E0AD
:10205000CE010196A8D7BE016F5F7F4FC801E2DABB
:10206000CE01019639D784EF91E00FC064E376E0AA
:10207000CE01019698D7BE016F5F7F4FC801D2DABB
:10208000CE01019629D780E090E026960FB6F8940D
:10209000DEBF0FBECDBFDF91CF911F910F9108958D
:1020A000CF92DF92EF92FF920F931F93CF93DF9324
:1020B000EC018BAD7E0198E4E90EF11CF701208163
:1020C00090E0821B91090297B4F0DBACD21ACD2CC0
:1020D000CC0C00E010E0CA94CA94DD2059F185E0F0
:1020E0008C0DFE01E80FF11D67A9CE015ADF080F24
:1020F000191FDA94F0CF8CAD882341F08BAD2817EF
:10210000B9F06CADCE014DDF8C0114C08BAD28133E
:102110000FC08DADFE01E65BFF4F8E3041F4808134
:102120008F5F8083853120F010828FEF07C010828F
:1021300000E010E08BADF7018083802FDF91CF911D
:102140001F910F91FF90EF90DF90CF900895CF9364
:10215000DF93EC018A819B81DC01ED91FC9104808D
:10216000F581E02D1995892B59F08A819B81DC013D
:10217000ED91FC910680F781E02DDF91CF911994CC
:10218000DF91CF910895EF92FF920F931F93CF931A
:10219000DF93EC017B0163EE74E0089604D78E01B7
:1021A000025F1F4F63EE74E0C801FDD683E397E042
:1021B0009983888340E052EC61E070E04C835D835A
:1021C0006E837F8383E596E09B838A83B701C80192
:1021D000DF91CF911F910F91FF90EF904BC7CF935D
:1021E000DF93EC018881998117D6CE010E9674D6C3
:1021F000CE010896DF91CF916FC6EF92FF920F93B9
:102200001F93CF93DF9300D000D0CDB7DEB78C0102
:102210007A0167E971E0DFD78AE0E816F1042CF46F
:1022200065E971E0C8010E9423194AE0B701CE01B7
:1022300001965ED7BE016F5F7F4FC801FED7CE010A
:1022400001964AD6C80126960FB6F894DEBF0FBE97
:10225000CDBFDF91CF911F910F91FF90EF90089527
:10226000AF92BF92CF92DF92EF92FF920F931F93A4
:10227000CF93DF9300D000D0CDB7DEB78C015B01E8
:102280000E94A9056B017C010E946905AC01B501A2
:10229000C801B3DF6AE971E0C801D5D7C701B6014B
:1022A0000E946E05AC01B501CE010196A6DFBE010C
:1022B0006F5F7F4FC801C1D7CE0101960DD668E987
:1022C00071E0C801C0D7C701B6010E947305AC0117
:1022D000B501CE01019691DFBE016F5F7F4FC8014E
:1022E000ACD7CE010196F8D5C80126960FB6F89462
:1022F000DEBF0FBECDBFDF91CF911F910F91FF9039
:10230000EF90DF90CF90BF90AF900895CF92DF9283
:10231000EF92FF920F931F93CF93DF93CDB7DEB76A
:102320002C970FB6F894DEBF0FBECDBF8C017B019A
:102330006A0163EE74E037D6B701CE01079690DFED
:10234000BE01695F7F4FCE010196A9D669E576E0AF
:10235000CE010196B5D7B701625F7F4FA0D767E581
:1023600076E0AED7B6019BD7BC01C80183D6CE01BB
:102370000196B2D5CE010796AFD5C8012C960FB6FF
:10238000F894DEBF0FBECDBFDF91CF911F910F91AB
:10239000FF90EF90DF90CF900895FC01448155812C
:1023A0006681778126E08081918172D380E00895F3
:1023B000EF92FF920F931F93CF93DF93CDB7DEB7CA
:1023C00062970FB6F894DEBF0FBECDBF8C017B01C4
:1023D00063EE74E0CE010D96E6D5B701CE01079607
:1023E0005ED6AE01495F5F4FB801CE0101968EDF28
:1023F000BE016F5F7F4FCE010D9659D6CE0101967B
:102400006BD5CE01079668D5BE01635F7F4FD801BB
:102410008D919C9151D5F80180819181DC01ED91E4
:10242000FC910284F385E02D1995CE010D9654D5CB
:1024300062960FB6F894DEBF0FBECDBFDF91CF918D
:102440001F910F91FF90EF900895FC01108211826F
:10245000128213820895CF93DF93EC0182D06883B8
:1024600079838A839B83DF91CF910895CF92DF9206
:10247000EF92FF920F931F93CF93DF93EC016A01CA
:102480007B016FD0088119812A813B816017710718
:102490008207930710F4CE01DEDF63D00881198133
:1024A0002A813B81601B710B820B930B21E06C1521
:1024B0007D058E059F0508F420E0822FDF91CF91E6
:1024C0001F910F91FF90EF90DF90CF9008951F9292
:1024D0000F920FB60F9211242F933F938F939F93D8
:1024E000AF93BF9380912B0790912C07A0912D075C
:1024F000B0912E0730912A0723E0230F2D3720F4C7
:102500000196A11DB11D05C026E8230F0296A11D4D
:10251000B11D20932A0780932B0790932C07A0933B
:102520002D07B0932E0780912F0790913007A0912F
:102530003107B09132070196A11DB11D80932F077D
:1025400090933007A0933107B0933207BF91AF91BA
:102550009F918F913F912F910F900FBE0F901F90E1
:1025600018952FB7F89460912B0770912C078091E4
:102570002D0790912E072FBF08953FB7F8948091B3
:102580002F0790913007A0913107B091320726B5FF
:10259000A89B05C02F3F19F00196A11DB11D3FBF9B
:1025A0006627782F892F9A2F620F711D811D911D2B
:1025B00042E0660F771F881F991F4A95D1F708954B
:1025C0008F929F92AF92BF92CF92DF92EF92FF9243
:1025D0006B017C01D2DF4B015C01C114D104E10429
:1025E000F104E1F085D6C9DF681979098A099B09E8
:1025F000683E73408105910580F321E0C21AD1083D
:10260000E108F10888EE880E83E0981EA11CB11C39
:10261000C114D104E104F10431F7DFCFFF90EF9052
:10262000DF90CF90BF90AF909F908F900895789457
:1026300084B5826084BD84B5816084BD85B58260C7
:1026400085BD85B5816085BDEEE6F0E08081816065
:102650008083E1E8F0E01082808182608083808165
:1026600081608083E0E8F0E0808181608083E1EB3D
:10267000F0E0808184608083E0EBF0E08081816025
:102680008083E1E9F0E080818260808380818160E5
:102690008083E0E9F0E0808181608083E1EAF0E01E
:1026A000808182608083808181608083E0EAF0E0C5
:1026B000808181608083E1E2F1E0808182608083BB
:1026C000808181608083E0E2F1E0808181608083AD
:1026D000EAE7F0E08081846080838081826080838B
:1026E0008081816080838081806880831092C100B6
:1026F000089590E0FC013197E231F10508F04BC0FC
:10270000EC57FF4F3FC6809180008F7703C08091C8
:1027100080008F7D80938000089580918000877F66
:10272000F9CF84B58F7702C084B58F7D84BD0895BD
:102730008091B0008F7703C08091B0008F7D80932F
:10274000B0000895809190008F7707C0809190002D
:102750008F7D03C080919000877F809390000895C3
:102760008091A0008F7707C08091A0008F7D03C06B
:102770008091A000877F8093A00008958091200120
:102780008F7707C0809120018F7D03C08091200149
:10279000877F809320010895CF93DF9390E0FC0121
:1027A000EE51FE4F2491FC01E85DFD4F849188239A
:1027B00049F190E0880F991FFC01E857FD4FA59162
:1027C000B49182599D4FFC01C591D4919FB761117D
:1027D00008C0F8948C91209582238C938881822361
:1027E0000AC0623051F4F8948C91322F30958323D3
:1027F0008C938881822B888304C0F8948C91822BDF
:102800008C939FBFDF91CF9108950F931F93CF9328
:10281000DF931F92CDB7DEB7282F30E0F901E456E1
:10282000FE4F8491F901EE51FE4F1491F901E85DDC
:10283000FD4F04910023C1F0882319F0698359DF0B
:102840006981E02FF0E0EE0FFF1FE259FD4FA591E7
:10285000B4919FB7F8948C91611103C010958123B6
:1028600001C0812B8C939FBF0F90DF91CF911F915F
:102870000F910895FC01818D228D90E0805C9F4F27
:10288000821B91098F7399270895FC01918D828D88
:10289000981731F0828DE80FF11D858D90E0089535
:1028A0008FEF9FEF0895FC01918D828D981761F055
:1028B000828DDF01A80FB11D5D968C91928D9F5F77
:1028C0009F73928F90E008958FEF9FEF089587E0B8
:1028D00096E1892B39F080E090E0892B19F097D1AF
:1028E000811124C080E090E0892B41F080E090E0ED
:1028F000892B21F00E94000081111BC080E090E034
:10290000892B41F080E090E0892B21F00E940000AB
:10291000811112C082EB96E1892B99F080E090E062
:10292000892B79F01FD281110AC008950E940000FE
:10293000D9CF0E940000E2CF0E940000EBCF0C94A0
:1029400000000895FC01848DDF01A80FB11DA35A7A
:10295000BF4F2C91848D90E001968F739927848FBF
:10296000A689B7892C93A089B1898C9180648C93B6
:10297000938D848D981306C00288F389E02D8081A1
:102980008F7D80830895CF93DF93EC01888D88231A
:10299000C1F0EA89FB89808185FD05C0A889B989D4
:1029A0008C9186FD0EC00FB607FCF5CF808185FFA8
:1029B000F2CFA889B9898C9185FFEDCFCE01C2DF16
:1029C000E8CFDF91CF910895CF92DF92FF920F93DE
:1029D0001F93CF93DF931F92CDB7DEB76C0181E0D9
:1029E000D60158968C9358975B969C915B975C9612
:1029F0008C915C97981307C05096ED91FC9151977C
:102A0000808185FD2DC0F601038D10E00F5F1F4F03
:102A10000F731127F02EF601848DF81210C00FB637
:102A200007FCF9CFD6015096ED91FC91519780812A
:102A300085FFF1CFC601698385DF6981ECCF838D86
:102A4000E80FF11DE35AFF4F6083D6015B960C93AC
:102A50005B975296ED91FC915397808180620CC0F8
:102A6000D6015696ED91FC91579760835096ED9163
:102A7000FC91519780818064808381E090E00F9089
:102A8000DF91CF911F910F91FF90DF90CF9008952C
:102A9000BF92CF92DF92EF92FF92CF93DF93EC0140
:102AA0006A017B01B22EE889F98982E080834115B1
:102AB00081EE58076105710599F060E079E08DE3DA
:102AC00090E0A70196013CD42150310941095109F8
:102AD0005695479537952795211580E1380790F051
:102AE000E889F989108260E874E88EE190E0A70136
:102AF000960126D42150310941095109569547952F
:102B000037952795EC85FD853083EE85FF852083FD
:102B1000188EEC89FD89B082EA89FB898081806109
:102B20008083EA89FB89808188608083EA89FB89C8
:102B3000808180688083EA89FB8980818F7D8083A2
:102B4000DF91CF91FF90EF90DF90CF90BF900895ED
:102B50001F920F920FB60F9211240BB60F922F9364
:102B60008F939F93EF93FF93E0914307F091440776
:102B70008081E0914907F0914A0782FD12C090815F
:102B800080914C078F5F8F7320914D07821751F012
:102B9000E0914C07F0E0ED5CF84F958F80934C0787
:102BA00001C08081FF91EF919F918F912F910F90A4
:102BB0000BBE0F900FBE0F901F9018951F920F9293
:102BC0000FB60F9211240BB60F922F933F934F9392
:102BD0005F936F937F938F939F93AF93BF93EF9385
:102BE000FF9383E397E0AEDEFF91EF91BF91AF914A
:102BF0009F918F917F916F915F914F913F912F9115
:102C00000F900BBE0F900FBE0F901F90189583E38F
:102C100097E030DE21E0892B09F420E0822F08952F
:102C2000109236071092350788EE93E0A0E0B0E0EE
:102C30008093370790933807A0933907B0933A07EA
:102C40008FE596E0909334078093330785EC90E00E
:102C50009093400780933F0784EC90E09093420765
:102C60008093410780EC90E0909344078093430762
:102C700081EC90E0909346078093450782EC90E0CA
:102C8000909348078093470786EC90E090934A071B
:102C90008093490710924C0710924D0710924E07EF
:102CA00010924F0708951F920F920FB60F921124A2
:102CB0000BB60F922F938F939F93EF93FF93E09117
:102CC000E007F091E1078081E091E607F091E707E6
:102CD00082FD12C090818091E9078F5F8F732091F0
:102CE000EA07821751F0E091E907F0E0E053F84F6E
:102CF000958F8093E90701C08081FF91EF919F91AB
:102D00008F912F910F900BBE0F900FBE0F901F90C1
:102D100018951F920F920FB60F9211240BB60F92B7
:102D20002F933F934F935F936F937F938F939F93D3
:102D3000AF93BF93EF93FF9380ED97E003DEFF9196
:102D4000EF91BF91AF919F918F917F916F915F9123
:102D50004F913F912F910F900BBE0F900FBE0F9090
:102D60001F90189580ED97E085DD21E0892B09F40F
:102D700020E0822F08951092D3071092D20788EE98
:102D800093E0A0E0B0E08093D4079093D507A093A0
:102D9000D607B093D7078FE596E09093D10780933D
:102DA000D00785E391E09093DD078093DC0784E30F
:102DB00091E09093DF078093DE0780E391E09093AA
:102DC000E1078093E00781E391E09093E30780932C
:102DD000E20782E391E09093E5078093E40786E3BE
:102DE00091E09093E7078093E6071092E90710922D
:102DF000EA071092EB071092EC070895089517DC8C
:102E0000FDDF0E944502C7E6D4E10E948F032097B0
:102E1000E1F35DDDFACFC0C257C3CF92DF92EF92EC
:102E2000FF920F931F93CF93DF937C016A01EB0115
:102E300000E010E00C151D0571F06991D701ED91CE
:102E4000FC910190F081E02DC7011995892B19F0B3
:102E50000F5F1F4FEFCFC801DF91CF911F910F91EF
:102E6000FF90EF90DF90CF9008956115710581F08C
:102E7000DB010D900020E9F7AD0141505109461BDF
:102E8000570BDC01ED91FC910280F381E02D199448
:102E900080E090E00895DC01ED91FC91DB01149657
:102EA0004D915C9115976D917C910280F381E02D9D
:102EB000199461EE74E0D9CF0F931F93CF93DF93F2
:102EC000EC01E9DF8C01CE01F4DF800F911FDF916F
:102ED000CF911F910F910895FC0180819181F4C2DF
:102EE000CF93DF93EC0188819981009709F0ECD2B0
:102EF000198218821D821C821B821A82DF91CF9157
:102F000008950F931F93CF93DF93EC018B016F5FB5
:102F10007F4F8881998167D3009731F099838883A7
:102F20001B830A8381E001C080E0DF91CF911F9174
:102F30000F910895CF93DF93EC0188819981892BBC
:102F400029F08A819B818617970758F4CE01D9DF33
:102F5000882341F08C819D81892B19F4E881F981C6
:102F6000108281E0DF91CF910895EF92FF920F934D
:102F70001F93CF93DF93EC017B018A01BA01DADF63
:102F8000811103C0CE01ACDF06C01D830C83B701E5
:102F90008881998125D4CE01DF91CF911F910F9126
:102FA000FF90EF900895FC0111821082138212822B
:102FB000158214826115710551F0FB01019000200A
:102FC000E9F7AF0141505109461B570BCECF089589
:102FD000EF92FF920F931F93CF93DF93EC017B014E
:102FE0008A01BA01A7DF811103C0CE0179DF06C0D3
:102FF0001D830C83B70188819981D9D3CE01DF91DC
:10300000CF911F910F91FF90EF9008950F931F9311
:10301000CF93DF938C01EB01FC01808191810097BC
:1030200089F0428153812C813D814217530748F03A
:1030300068817981D5D38C819D81F80195838483C2
:1030400012C042D288819981F801918380838A815C
:103050009B81938382838C819D8195838483198254
:1030600018821B821A821D821C82DF91CF911F91D0
:103070000F910895CF93DF93EC01FB01861797071B
:1030800051F0608171816115710521F04481558194
:103090006CDF01C025DFCE01DF91CF910895FC01E7
:1030A000118210821382128215821482E3CFCF9391
:1030B000DF93EC018617970709F0A8DFCE01DF91B7
:1030C000CF910895CF93DF93EC016115710559F00D
:1030D000FB0101900020E9F7AF0141505109461B67
:1030E000570B43DF01C0FCDECE01DF91CF91089585
:1030F0000F931F93CF93DF93CDB7DEB762970FB6D1
:10310000F894DEBF0FBECDBF8C01CB01F801118258
:103110001082138212821582148250E0BE016F5F0A
:103120007F4F65D3BE016F5F7F4FC801CBDF6296D3
:103130000FB6F894DEBF0FBECDBFDF91CF911F91C8
:103140000F9108950F931F93CF93DF93CDB7DEB701
:1031500061970FB6F894DEBF0FBECDBF8C01CB01D7
:10316000F80111821082138212821582148250E0BB
:10317000BE016F5F7F4F4FD3BE016F5F7F4FC801AE
:10318000A1DF61960FB6F894DEBF0FBECDBFDF9111
:10319000CF911F910F9108950F931F93CF93DF93BA
:1031A0001F921F92CDB7DEB78C016115710551F0EA
:1031B000CB0169837A8302D3AC0169817A81C8012A
:1031C00007DF01C08DDEC8010F900F90DF91CF9116
:1031D0001F910F910895FC011182108213821282B7
:1031E00015821482D9CFEF92FF920F931F93CF9342
:1031F000DF93EC017B010C811D816115710511F4D8
:1032000080E014C04115510581F0040F151FB8016D
:1032100091DE8823A9F3288139818C819D81B701B2
:10322000820F931FDDD21D830C8381E0DF91CF914C
:103230001F910F91FF90EF900895FB0144815581FC
:1032400060817181D0CFEF92FF920F931F93CF9344
:10325000DF93EC017B016115710511F480E018C06A
:10326000CB01ACD2009799F00C811D81080F191F7A
:10327000B801CE015FDE882389F3288139818C81F2
:103280009D81B701820F931F92D21D830C8381E031
:10329000DF91CF911F910F91FF90EF900895CF9301
:1032A000DF93EC01FB0144815581608171819BDFDB
:1032B000811102C0CE0114DECE01DF91CF910895BD
:1032C000CF93DF93EC016115710561F0FB01019073
:1032D0000020E9F7AF0141505109461B570B83DF2E
:1032E000811102C0CE01FCDDCE01DF91CF910895A6
:1032F0000895AA1BBB1B51E107C0AA1FBB1FA6173D
:10330000B70710F0A61BB70B881F991F5A95A9F78E
:1033100080959095BC01CD01089597FB072E16F47A
:10332000009406D077FD08D0E4DF07FC05D03EF41A
:10333000909581959F4F0895709561957F4F089561
:10334000A1E21A2EAA1BBB1BFD010DC0AA1FBB1FA9
:10335000EE1FFF1FA217B307E407F50720F0A21B1B
:10336000B30BE40BF50B661F771F881F991F1A9488
:1033700069F760957095809590959B01AC01BD01B2
:10338000CF010895EE0FFF1F0590F491E02D1994E1
:103390000790F691E02D1994CF93DF938230910539
:1033A00010F482E090E0E0916F08F091700820E066
:1033B00030E0A0E0B0E0309739F14081518148170A
:1033C0005907B8F04817590771F482819381109713
:1033D00029F013969C938E9312972CC090937008AB
:1033E00080936F0827C02115310531F0421753072C
:1033F00018F0A901DB0101C0EF019A01BD01DF0155
:103400000280F381E02DD7CF21153105F9F0281B7B
:10341000390B2430310580F48A819B816115710557
:1034200021F0FB019383828304C090937008809302
:103430006F08FE01329644C0FE01E20FF31F819334
:10344000919322503109398328833AC020916D0825
:1034500030916E08232B41F4209102023091030237
:1034600030936E0820936D08209100023091010284
:103470002115310541F42DB73EB74091040250911A
:103480000502241B350BE0916D08F0916E08E217E0
:10349000F307A0F42E1B3F0B2817390778F0AC0177
:1034A0004E5F5F4F2417350748F04E0F5F1F509354
:1034B0006E0840936D088193919302C0E0E0F0E0C4
:1034C000CF01DF91CF910895CF93DF93009709F457
:1034D00087C0FC01329713821282C0916F08D0918D
:1034E0007008209781F420813181280F391F809145
:1034F0006D0890916E088217930779F5F0936E0826
:10350000E0936D086DC0DE0120E030E0AE17BF072C
:1035100050F412964D915C9113979D014115510500
:1035200009F1DA01F3CFB383A28340815181840F83
:10353000951F8A179B0771F48D919C911197840FA9
:10354000951F02969183808312968D919C9113977B
:10355000938382832115310529F4F0937008E09359
:103560006F083EC0D9011396FC93EE9312974D91CC
:103570005D91A40FB51FEA17FB0779F48081918153
:10358000840F951F0296D90111969C938E93828188
:10359000938113969C938E931297E0E0F0E08A81DA
:1035A0009B81009719F0FE01EC01F9CFCE01029644
:1035B00028813981820F931F20916D0830916E0808
:1035C0002817390769F4309729F41092700810927F
:1035D0006F0802C013821282D0936E08C0936D08E8
:1035E000DF91CF9108956F927F928F929F92AF92C9
:1035F000BF92CF92DF92EF92FF920F931F93CF93E0
:10360000DF93EC01CB01209779F4DF91CF911F91EB
:103610000F91FF90EF90DF90CF90BF90AF909F9071
:103620008F907F906F90B8CEFE01E60FF71F9E013E
:1036300022503109E217F30708F4A8C0D9010D910F
:103640001C91119706171707B0F00530110508F403
:103650009BC0A801445051094617570708F494C06D
:1036600002501109061B170B019311936D937C9364
:10367000CF012ADF89C05B01A01AB10A4E01800E7A
:10368000911EA0916F08B0917008612C712C60E0C0
:1036900070E0109709F449C0A815B905C9F5ED9077
:1036A000FC901197670142E0C40ED11CCA14DB04E0
:1036B00078F147018A189B08640142E0C40ED11CCE
:1036C0001296BC9012971396AC91B5E0CB16D1042C
:1036D00040F0B282A38391828082D9018D939C9322
:1036E00009C00E5F1F4F0E0D1F1DF90111830083CE
:1036F000EB2DFA2F6115710531F0DB011396FC9368
:10370000EE93129741C0F0937008E0936F083CC0AD
:103710006D917C9111976616770608F43B01BD0107
:1037200012960D90BC91A02DB4CF60916D08709150
:103730006E0868157905E9F468167906D0F44091A9
:103740000002509101024115510541F44DB75EB799
:103750006091040270910502461B570BE417F507B0
:10376000A8F4F0936E08E0936D08F90191838083CB
:103770000BC012DE7C01009749F0A801BE0127D0E2
:10378000CE01A2DEC70104C0CE0102C080E090E0FD
:10379000DF91CF911F910F91FF90EF90DF90CF902D
:1037A000BF90AF909F908F907F906F900895FB0196
:1037B000DC0105900D920020E1F70895FC010590D1
:1037C0000020E9F7809590958E0F9F1F0895FB01CB
:1037D000DC0102C001900D9241505040D8F708958D
:1037E000FB01DC0101900D920020E1F708954532C4
:1037F000510518F4423008F004C0FB011082CB01DF
:103800000895BB274A3031F4992322F4BDE2909504
:1038100081959F4F0BC04532510518F4423008F096
:1038200004C0FB011082CB010895BB27FB01552783
:10383000AA27880F991FAA1FA41710F0A41B83950D
:103840005051B9F7A05DAA3308F0A95DA193009784
:1038500079F7B111B1931192CB0100C0DC01FC01E9
:10386000672F71917723E1F7329704C07C916D93B4
:1038700070836291AE17BF07C8F3089512E0CAEAD9
:10388000D2E000E005C022970109FE010BBF80DDF8
:0E389000CE3AD10780E00807B1F7F894FFCFD9
:10389E000000710880002C01000067657420436FE2
:1038AE00696E2076616C7565203D2000546F7461E1
:1038BE006C20436F696E2076616C7565203D20002B
:1038CE006765742042696C6C2076616C7565203D6D
:1038DE002000546F74616C2042696C6C2076616CB0
:1038EE007565203D200043616E277420636F6E6EF8
:1038FE0065637420746F20436F696E206163632E5D
:10390E0000436F696E206163632E204572726F7281
:10391E0020436F6465203D200043616E2774206351
:10392E006F6E6E65637420746F2042696C6C2061DB
:10393E0063632E0042696C6C206163632E204572B6
:10394E00726F7220436F6465203D20004D41494ED9
:10395E00001F1C1F1E1F1E1F1F1E1F1E1F706F729B
:10396E0074496E697400436F696E4163632E204320
:10397E006F6E6E656374696F6E203E3E204F4B0016
:10398E00436F696E4163632E2053746174757320A7
:10399E003E3E20453000436F696E4163632E2053D7
:1039AE007461747573203E3E204500436F696E410D
:1039BE0063632E20436F6E6E656374696F6E203E77
:1039CE003E204572726F7200436F696E4163632EC3
:1039DE0020537461747573203E3E20453030004391
:1039EE006F696E4163632E20537461747573203E4C
:1039FE003E20526561647900436F696E4163632EA8
:103A0E0020496E697469616C0053657420436F6957
:103A1E006E204163632E20506F776572203E3E20EC
:103A2E00484947480053657420436F696E204163CF
:103A3E00632E20506F776572203E3E204C4F57000C
:103A4E0042696C6C4163632E20436F6E6E656374C6
:103A5E00696F6E203E3E204F4B0042696C6C416395
:103A6E00632E20537461747573203E3E20453000E2
:103A7E0042696C6C4163632E2053746174757320BC
:103A8E003E3E20450042696C6C4163632E20436FBD
:103A9E006E6E656374696F6E203E3E204572726F66
:103AAE00720042696C6C4163632E205374617475AD
:103ABE0073203E3E204530300042696C6C4163639A
:103ACE002E20537461747573203E3E2052656164DE
:103ADE00790042696C6C4163632E20496E6974698A
:103AEE00616C005365742042696C6C204163632ED7
:103AFE0020506F776572203E3E204849474800535C
:103B0E0065742042696C6C204163632E20506F7780
:103B1E006572203E3E204C4F570021215265706544
:103B2E006174205265636569766520446174612015
:103B3E002D2054696D656F75742121002121526508
:103B4E0063656976652044617461202D20496E633A
:103B5E006F727265637421210D0A0053656C6620C5
:103B6E00636865636B202D2D3E204572726F722146
:103B7E00210D0A00506C732C20436865636B4465FD
:103B8E00766963652E0D0A0021215265636569769B
:103B9E0065204576656E742044617461202D205435
:103BAE00696D656F757421210D0A00536574556E2C
:103BBE00496E68696269740D0A005365744D6173CC
:103BCE00746572202D204F4E0D0A005365744D61A1
:103BDE0073746572202D204F46460D0A00526563A0
:103BEE006569766564202D20314254482E0D0A00F9
:103BFE005265636569766564202D20324254482EE5
:103C0E000D0A005265636569766564202D20354284
:103C1E0054482E0D0A005265636569766564202D41
:103C2E002031304254482E0D0A0062696C6C41639B
:103C3E0063203E3E205265636569766564202D20C3
:103C4E003230424148542E0062696C6C41636320ED
:103C5E003E3E205265636569766564202D203530C1
:103C6E00424148542E0062696C6C416363203E3EB3
:103C7E00205265636569766564202D2031303042AF
:103C8E004148542E0062696C6C416363203E3E20B5
:103C9E005265636569766564202D2035303042416A
:103CAE0048542E0062696C6C416363203E3E205284
:103CBE0065636569766564202D2031303030424170
:103CCE0048542E0062696C6C416363203E3E204373
:103CDE0068616E6E656C206E6F7420666F756E64B3
:103CEE000D0A006C6F6700203A200000000000E40F
:103CFE00140D173A1453144514C3146E616E0069F3
:083D0E006E66006F766600008E
:00000001FF
